{
	"CommitReveal.sol": {
		"CommitReveal": {
			"abi": [
				{
					"anonymous": false,
					"inputs": [
						{
							"indexed": false,
							"internalType": "address",
							"name": "sender",
							"type": "address"
						},
						{
							"indexed": false,
							"internalType": "bytes32",
							"name": "dataHash",
							"type": "bytes32"
						},
						{
							"indexed": false,
							"internalType": "uint64",
							"name": "block",
							"type": "uint64"
						}
					],
					"name": "CommitHash",
					"type": "event"
				},
				{
					"anonymous": false,
					"inputs": [
						{
							"indexed": false,
							"internalType": "address",
							"name": "sender",
							"type": "address"
						},
						{
							"indexed": false,
							"internalType": "bytes32",
							"name": "answer",
							"type": "bytes32"
						},
						{
							"indexed": false,
							"internalType": "bytes32",
							"name": "salt",
							"type": "bytes32"
						}
					],
					"name": "RevealAnswer",
					"type": "event"
				},
				{
					"anonymous": false,
					"inputs": [
						{
							"indexed": false,
							"internalType": "address",
							"name": "sender",
							"type": "address"
						},
						{
							"indexed": false,
							"internalType": "bytes32",
							"name": "revealHash",
							"type": "bytes32"
						},
						{
							"indexed": false,
							"internalType": "uint256",
							"name": "random",
							"type": "uint256"
						}
					],
					"name": "RevealHash",
					"type": "event"
				},
				{
					"inputs": [
						{
							"internalType": "bytes32",
							"name": "dataHash",
							"type": "bytes32"
						}
					],
					"name": "commit",
					"outputs": [],
					"stateMutability": "nonpayable",
					"type": "function"
				},
				{
					"inputs": [
						{
							"internalType": "address",
							"name": "",
							"type": "address"
						}
					],
					"name": "commits",
					"outputs": [
						{
							"internalType": "bytes32",
							"name": "commit",
							"type": "bytes32"
						},
						{
							"internalType": "uint64",
							"name": "block",
							"type": "uint64"
						},
						{
							"internalType": "bool",
							"name": "revealed",
							"type": "bool"
						}
					],
					"stateMutability": "view",
					"type": "function"
				},
				{
					"inputs": [],
					"name": "max",
					"outputs": [
						{
							"internalType": "uint8",
							"name": "",
							"type": "uint8"
						}
					],
					"stateMutability": "view",
					"type": "function"
				},
				{
					"inputs": [
						{
							"internalType": "bytes32",
							"name": "revealHash",
							"type": "bytes32"
						}
					],
					"name": "reveal",
					"outputs": [],
					"stateMutability": "nonpayable",
					"type": "function"
				},
				{
					"inputs": [
						{
							"internalType": "bytes32",
							"name": "answer",
							"type": "bytes32"
						},
						{
							"internalType": "bytes32",
							"name": "salt",
							"type": "bytes32"
						}
					],
					"name": "revealAnswer",
					"outputs": [],
					"stateMutability": "nonpayable",
					"type": "function"
				}
			],
			"devdoc": {
				"kind": "dev",
				"methods": {},
				"version": 1
			},
			"evm": {
				"assembly": "    /* \"CommitReveal.sol\":70:2677  contract CommitReveal {... */\n  mstore(0x40, 0x80)\n    /* \"CommitReveal.sol\":116:119  100 */\n  0x64\n    /* \"CommitReveal.sol\":97:119  uint8 public max = 100 */\n  0x00\n  dup1\n  0x0100\n  exp\n  dup2\n  sload\n  dup2\n  0xff\n  mul\n  not\n  and\n  swap1\n  dup4\n  0xff\n  and\n  mul\n  or\n  swap1\n  sstore\n  pop\n    /* \"CommitReveal.sol\":70:2677  contract CommitReveal {... */\n  callvalue\n  dup1\n  iszero\n  tag_1\n  jumpi\n  0x00\n  dup1\n  revert\ntag_1:\n  pop\n  dataSize(sub_0)\n  dup1\n  dataOffset(sub_0)\n  0x00\n  codecopy\n  0x00\n  return\nstop\n\nsub_0: assembly {\n        /* \"CommitReveal.sol\":70:2677  contract CommitReveal {... */\n      mstore(0x40, 0x80)\n      callvalue\n      dup1\n      iszero\n      tag_1\n      jumpi\n      0x00\n      dup1\n      revert\n    tag_1:\n      pop\n      jumpi(tag_2, lt(calldatasize, 0x04))\n      shr(0xe0, calldataload(0x00))\n      dup1\n      0x6ac5db19\n      eq\n      tag_3\n      jumpi\n      dup1\n      0x701fd0f1\n      eq\n      tag_4\n      jumpi\n      dup1\n      0x7b43a8e6\n      eq\n      tag_5\n      jumpi\n      dup1\n      0xde8e9033\n      eq\n      tag_6\n      jumpi\n      dup1\n      0xf14fcbc8\n      eq\n      tag_7\n      jumpi\n    tag_2:\n      0x00\n      dup1\n      revert\n        /* \"CommitReveal.sol\":97:119  uint8 public max = 100 */\n    tag_3:\n      tag_8\n      tag_9\n      jump\t// in\n    tag_8:\n      mload(0x40)\n      tag_10\n      swap2\n      swap1\n      tag_11\n      jump\t// in\n    tag_10:\n      mload(0x40)\n      dup1\n      swap2\n      sub\n      swap1\n      return\n        /* \"CommitReveal.sol\":594:1743  function reveal(bytes32 revealHash) public {... */\n    tag_4:\n      tag_12\n      0x04\n      dup1\n      calldatasize\n      sub\n      dup2\n      add\n      swap1\n      tag_13\n      swap2\n      swap1\n      tag_14\n      jump\t// in\n    tag_13:\n      tag_15\n      jump\t// in\n    tag_12:\n      stop\n        /* \"CommitReveal.sol\":204:246  mapping (address => Commit) public commits */\n    tag_5:\n      tag_16\n      0x04\n      dup1\n      calldatasize\n      sub\n      dup2\n      add\n      swap1\n      tag_17\n      swap2\n      swap1\n      tag_18\n      jump\t// in\n    tag_17:\n      tag_19\n      jump\t// in\n    tag_16:\n      mload(0x40)\n      tag_20\n      swap4\n      swap3\n      swap2\n      swap1\n      tag_21\n      jump\t// in\n    tag_20:\n      mload(0x40)\n      dup1\n      swap2\n      sub\n      swap1\n      return\n        /* \"CommitReveal.sol\":1947:2450  function revealAnswer(bytes32 answer,bytes32 salt) public {... */\n    tag_6:\n      tag_22\n      0x04\n      dup1\n      calldatasize\n      sub\n      dup2\n      add\n      swap1\n      tag_23\n      swap2\n      swap1\n      tag_24\n      jump\t// in\n    tag_23:\n      tag_25\n      jump\t// in\n    tag_22:\n      stop\n        /* \"CommitReveal.sol\":251:522  function commit(bytes32 dataHash) public {... */\n    tag_7:\n      tag_26\n      0x04\n      dup1\n      calldatasize\n      sub\n      dup2\n      add\n      swap1\n      tag_27\n      swap2\n      swap1\n      tag_14\n      jump\t// in\n    tag_27:\n      tag_28\n      jump\t// in\n    tag_26:\n      stop\n        /* \"CommitReveal.sol\":97:119  uint8 public max = 100 */\n    tag_9:\n      0x00\n      dup1\n      sload\n      swap1\n      0x0100\n      exp\n      swap1\n      div\n      0xff\n      and\n      dup2\n      jump\t// out\n        /* \"CommitReveal.sol\":594:1743  function reveal(bytes32 revealHash) public {... */\n    tag_15:\n        /* \"CommitReveal.sol\":748:753  false */\n      0x00\n        /* \"CommitReveal.sol\":718:753  commits[msg.sender].revealed==false */\n      iszero\n      iszero\n        /* \"CommitReveal.sol\":718:725  commits */\n      0x01\n        /* \"CommitReveal.sol\":718:737  commits[msg.sender] */\n      0x00\n        /* \"CommitReveal.sol\":726:736  msg.sender */\n      caller\n        /* \"CommitReveal.sol\":718:737  commits[msg.sender] */\n      0xffffffffffffffffffffffffffffffffffffffff\n      and\n      0xffffffffffffffffffffffffffffffffffffffff\n      and\n      dup2\n      mstore\n      0x20\n      add\n      swap1\n      dup2\n      mstore\n      0x20\n      add\n      0x00\n      keccak256\n        /* \"CommitReveal.sol\":718:746  commits[msg.sender].revealed */\n      0x01\n      add\n      0x08\n      swap1\n      sload\n      swap1\n      0x0100\n      exp\n      swap1\n      div\n      0xff\n      and\n        /* \"CommitReveal.sol\":718:753  commits[msg.sender].revealed==false */\n      iszero\n      iszero\n      eq\n        /* \"CommitReveal.sol\":710:795  require(commits[msg.sender].revealed==false,\"CommitReveal::reveal: Already revealed\") */\n      tag_30\n      jumpi\n      mload(0x40)\n      0x08c379a000000000000000000000000000000000000000000000000000000000\n      dup2\n      mstore\n      0x04\n      add\n      tag_31\n      swap1\n      tag_32\n      jump\t// in\n    tag_31:\n      mload(0x40)\n      dup1\n      swap2\n      sub\n      swap1\n      revert\n    tag_30:\n        /* \"CommitReveal.sol\":830:834  true */\n      0x01\n        /* \"CommitReveal.sol\":801:808  commits */\n      dup1\n        /* \"CommitReveal.sol\":801:820  commits[msg.sender] */\n      0x00\n        /* \"CommitReveal.sol\":809:819  msg.sender */\n      caller\n        /* \"CommitReveal.sol\":801:820  commits[msg.sender] */\n      0xffffffffffffffffffffffffffffffffffffffff\n      and\n      0xffffffffffffffffffffffffffffffffffffffff\n      and\n      dup2\n      mstore\n      0x20\n      add\n      swap1\n      dup2\n      mstore\n      0x20\n      add\n      0x00\n      keccak256\n        /* \"CommitReveal.sol\":801:829  commits[msg.sender].revealed */\n      0x01\n      add\n      0x08\n        /* \"CommitReveal.sol\":801:834  commits[msg.sender].revealed=true */\n      0x0100\n      exp\n      dup2\n      sload\n      dup2\n      0xff\n      mul\n      not\n      and\n      swap1\n      dup4\n      iszero\n      iszero\n      mul\n      or\n      swap1\n      sstore\n      pop\n        /* \"CommitReveal.sol\":924:931  commits */\n      0x01\n        /* \"CommitReveal.sol\":924:943  commits[msg.sender] */\n      0x00\n        /* \"CommitReveal.sol\":932:942  msg.sender */\n      caller\n        /* \"CommitReveal.sol\":924:943  commits[msg.sender] */\n      0xffffffffffffffffffffffffffffffffffffffff\n      and\n      0xffffffffffffffffffffffffffffffffffffffff\n      and\n      dup2\n      mstore\n      0x20\n      add\n      swap1\n      dup2\n      mstore\n      0x20\n      add\n      0x00\n      keccak256\n        /* \"CommitReveal.sol\":924:950  commits[msg.sender].commit */\n      0x00\n      add\n      sload\n        /* \"CommitReveal.sol\":903:922  getHash(revealHash) */\n      tag_33\n        /* \"CommitReveal.sol\":911:921  revealHash */\n      dup3\n        /* \"CommitReveal.sol\":903:910  getHash */\n      tag_34\n        /* \"CommitReveal.sol\":903:922  getHash(revealHash) */\n      jump\t// in\n    tag_33:\n        /* \"CommitReveal.sol\":903:950  getHash(revealHash)==commits[msg.sender].commit */\n      eq\n        /* \"CommitReveal.sol\":895:1011  require(getHash(revealHash)==commits[msg.sender].commit,\"CommitReveal::reveal: Revealed hash does not match commit\") */\n      tag_35\n      jumpi\n      mload(0x40)\n      0x08c379a000000000000000000000000000000000000000000000000000000000\n      dup2\n      mstore\n      0x04\n      add\n      tag_36\n      swap1\n      tag_37\n      jump\t// in\n    tag_36:\n      mload(0x40)\n      dup1\n      swap2\n      sub\n      swap1\n      revert\n    tag_35:\n        /* \"CommitReveal.sol\":1117:1124  commits */\n      0x01\n        /* \"CommitReveal.sol\":1117:1136  commits[msg.sender] */\n      0x00\n        /* \"CommitReveal.sol\":1125:1135  msg.sender */\n      caller\n        /* \"CommitReveal.sol\":1117:1136  commits[msg.sender] */\n      0xffffffffffffffffffffffffffffffffffffffff\n      and\n      0xffffffffffffffffffffffffffffffffffffffff\n      and\n      dup2\n      mstore\n      0x20\n      add\n      swap1\n      dup2\n      mstore\n      0x20\n      add\n      0x00\n      keccak256\n        /* \"CommitReveal.sol\":1117:1142  commits[msg.sender].block */\n      0x01\n      add\n      0x00\n      swap1\n      sload\n      swap1\n      0x0100\n      exp\n      swap1\n      div\n      0xffffffffffffffff\n      and\n        /* \"CommitReveal.sol\":1096:1142  uint64(block.number)>commits[msg.sender].block */\n      0xffffffffffffffff\n      and\n        /* \"CommitReveal.sol\":1103:1115  block.number */\n      number\n        /* \"CommitReveal.sol\":1096:1142  uint64(block.number)>commits[msg.sender].block */\n      0xffffffffffffffff\n      and\n      gt\n        /* \"CommitReveal.sol\":1088:1212  require(uint64(block.number)>commits[msg.sender].block,\"CommitReveal::reveal: Reveal and commit happened on the same block\") */\n      tag_38\n      jumpi\n      mload(0x40)\n      0x08c379a000000000000000000000000000000000000000000000000000000000\n      dup2\n      mstore\n      0x04\n      add\n      tag_39\n      swap1\n      tag_40\n      jump\t// in\n    tag_39:\n      mload(0x40)\n      dup1\n      swap2\n      sub\n      swap1\n      revert\n    tag_38:\n        /* \"CommitReveal.sol\":1329:1332  250 */\n      0xfa\n        /* \"CommitReveal.sol\":1303:1310  commits */\n      0x01\n        /* \"CommitReveal.sol\":1303:1322  commits[msg.sender] */\n      0x00\n        /* \"CommitReveal.sol\":1311:1321  msg.sender */\n      caller\n        /* \"CommitReveal.sol\":1303:1322  commits[msg.sender] */\n      0xffffffffffffffffffffffffffffffffffffffff\n      and\n      0xffffffffffffffffffffffffffffffffffffffff\n      and\n      dup2\n      mstore\n      0x20\n      add\n      swap1\n      dup2\n      mstore\n      0x20\n      add\n      0x00\n      keccak256\n        /* \"CommitReveal.sol\":1303:1328  commits[msg.sender].block */\n      0x01\n      add\n      0x00\n      swap1\n      sload\n      swap1\n      0x0100\n      exp\n      swap1\n      div\n      0xffffffffffffffff\n      and\n        /* \"CommitReveal.sol\":1303:1332  commits[msg.sender].block+250 */\n      tag_41\n      swap2\n      swap1\n      tag_42\n      jump\t// in\n    tag_41:\n        /* \"CommitReveal.sol\":1281:1332  uint64(block.number)<=commits[msg.sender].block+250 */\n      0xffffffffffffffff\n      and\n        /* \"CommitReveal.sol\":1288:1300  block.number */\n      number\n        /* \"CommitReveal.sol\":1281:1332  uint64(block.number)<=commits[msg.sender].block+250 */\n      0xffffffffffffffff\n      and\n      gt\n      iszero\n        /* \"CommitReveal.sol\":1273:1375  require(uint64(block.number)<=commits[msg.sender].block+250,\"CommitReveal::reveal: Revealed too late\") */\n      tag_43\n      jumpi\n      mload(0x40)\n      0x08c379a000000000000000000000000000000000000000000000000000000000\n      dup2\n      mstore\n      0x04\n      add\n      tag_44\n      swap1\n      tag_45\n      jump\t// in\n    tag_44:\n      mload(0x40)\n      dup1\n      swap2\n      sub\n      swap1\n      revert\n    tag_43:\n        /* \"CommitReveal.sol\":1448:1465  bytes32 blockHash */\n      0x00\n        /* \"CommitReveal.sol\":1478:1485  commits */\n      0x01\n        /* \"CommitReveal.sol\":1478:1497  commits[msg.sender] */\n      0x00\n        /* \"CommitReveal.sol\":1486:1496  msg.sender */\n      caller\n        /* \"CommitReveal.sol\":1478:1497  commits[msg.sender] */\n      0xffffffffffffffffffffffffffffffffffffffff\n      and\n      0xffffffffffffffffffffffffffffffffffffffff\n      and\n      dup2\n      mstore\n      0x20\n      add\n      swap1\n      dup2\n      mstore\n      0x20\n      add\n      0x00\n      keccak256\n        /* \"CommitReveal.sol\":1478:1503  commits[msg.sender].block */\n      0x01\n      add\n      0x00\n      swap1\n      sload\n      swap1\n      0x0100\n      exp\n      swap1\n      div\n      0xffffffffffffffff\n      and\n        /* \"CommitReveal.sol\":1468:1504  blockhash(commits[msg.sender].block) */\n      0xffffffffffffffff\n      and\n      blockhash\n        /* \"CommitReveal.sol\":1448:1504  bytes32 blockHash = blockhash(commits[msg.sender].block) */\n      swap1\n      pop\n        /* \"CommitReveal.sol\":1614:1625  uint random */\n      0x00\n        /* \"CommitReveal.sol\":1684:1687  max */\n      dup1\n      0x00\n      swap1\n      sload\n      swap1\n      0x0100\n      exp\n      swap1\n      div\n      0xff\n      and\n        /* \"CommitReveal.sol\":1628:1687  uint(keccak256(abi.encodePacked(blockHash,revealHash)))%max */\n      0xff\n      and\n        /* \"CommitReveal.sol\":1660:1669  blockHash */\n      dup3\n        /* \"CommitReveal.sol\":1670:1680  revealHash */\n      dup5\n        /* \"CommitReveal.sol\":1643:1681  abi.encodePacked(blockHash,revealHash) */\n      add(0x20, mload(0x40))\n      tag_46\n      swap3\n      swap2\n      swap1\n      tag_47\n      jump\t// in\n    tag_46:\n      mload(0x40)\n      0x20\n      dup2\n      dup4\n      sub\n      sub\n      dup2\n      mstore\n      swap1\n      0x40\n      mstore\n        /* \"CommitReveal.sol\":1633:1682  keccak256(abi.encodePacked(blockHash,revealHash)) */\n      dup1\n      mload\n      swap1\n      0x20\n      add\n      keccak256\n        /* \"CommitReveal.sol\":1628:1683  uint(keccak256(abi.encodePacked(blockHash,revealHash))) */\n      0x00\n      shr\n        /* \"CommitReveal.sol\":1628:1687  uint(keccak256(abi.encodePacked(blockHash,revealHash)))%max */\n      tag_48\n      swap2\n      swap1\n      tag_49\n      jump\t// in\n    tag_48:\n        /* \"CommitReveal.sol\":1614:1687  uint random = uint(keccak256(abi.encodePacked(blockHash,revealHash)))%max */\n      swap1\n      pop\n        /* \"CommitReveal.sol\":1698:1738  RevealHash(msg.sender,revealHash,random) */\n      0xbc016dd1cadeaefcb851af7a0a93532e0023d536894b730801f7bcfe7065bcc2\n        /* \"CommitReveal.sol\":1709:1719  msg.sender */\n      caller\n        /* \"CommitReveal.sol\":1720:1730  revealHash */\n      dup5\n        /* \"CommitReveal.sol\":1731:1737  random */\n      dup4\n        /* \"CommitReveal.sol\":1698:1738  RevealHash(msg.sender,revealHash,random) */\n      mload(0x40)\n      tag_50\n      swap4\n      swap3\n      swap2\n      swap1\n      tag_51\n      jump\t// in\n    tag_50:\n      mload(0x40)\n      dup1\n      swap2\n      sub\n      swap1\n      log1\n        /* \"CommitReveal.sol\":637:1743  {... */\n      pop\n      pop\n        /* \"CommitReveal.sol\":594:1743  function reveal(bytes32 revealHash) public {... */\n      pop\n      jump\t// out\n        /* \"CommitReveal.sol\":204:246  mapping (address => Commit) public commits */\n    tag_19:\n      mstore(0x20, 0x01)\n      dup1\n      0x00\n      mstore\n      keccak256(0x00, 0x40)\n      0x00\n      swap2\n      pop\n      swap1\n      pop\n      dup1\n      0x00\n      add\n      sload\n      swap1\n      dup1\n      0x01\n      add\n      0x00\n      swap1\n      sload\n      swap1\n      0x0100\n      exp\n      swap1\n      div\n      0xffffffffffffffff\n      and\n      swap1\n      dup1\n      0x01\n      add\n      0x08\n      swap1\n      sload\n      swap1\n      0x0100\n      exp\n      swap1\n      div\n      0xff\n      and\n      swap1\n      pop\n      dup4\n      jump\t// out\n        /* \"CommitReveal.sol\":1947:2450  function revealAnswer(bytes32 answer,bytes32 salt) public {... */\n    tag_25:\n        /* \"CommitReveal.sol\":2116:2121  false */\n      0x00\n        /* \"CommitReveal.sol\":2086:2121  commits[msg.sender].revealed==false */\n      iszero\n      iszero\n        /* \"CommitReveal.sol\":2086:2093  commits */\n      0x01\n        /* \"CommitReveal.sol\":2086:2105  commits[msg.sender] */\n      0x00\n        /* \"CommitReveal.sol\":2094:2104  msg.sender */\n      caller\n        /* \"CommitReveal.sol\":2086:2105  commits[msg.sender] */\n      0xffffffffffffffffffffffffffffffffffffffff\n      and\n      0xffffffffffffffffffffffffffffffffffffffff\n      and\n      dup2\n      mstore\n      0x20\n      add\n      swap1\n      dup2\n      mstore\n      0x20\n      add\n      0x00\n      keccak256\n        /* \"CommitReveal.sol\":2086:2114  commits[msg.sender].revealed */\n      0x01\n      add\n      0x08\n      swap1\n      sload\n      swap1\n      0x0100\n      exp\n      swap1\n      div\n      0xff\n      and\n        /* \"CommitReveal.sol\":2086:2121  commits[msg.sender].revealed==false */\n      iszero\n      iszero\n      eq\n        /* \"CommitReveal.sol\":2078:2169  require(commits[msg.sender].revealed==false,\"CommitReveal::revealAnswer: Already revealed\") */\n      tag_53\n      jumpi\n      mload(0x40)\n      0x08c379a000000000000000000000000000000000000000000000000000000000\n      dup2\n      mstore\n      0x04\n      add\n      tag_54\n      swap1\n      tag_55\n      jump\t// in\n    tag_54:\n      mload(0x40)\n      dup1\n      swap2\n      sub\n      swap1\n      revert\n    tag_53:\n        /* \"CommitReveal.sol\":2204:2208  true */\n      0x01\n        /* \"CommitReveal.sol\":2175:2182  commits */\n      dup1\n        /* \"CommitReveal.sol\":2175:2194  commits[msg.sender] */\n      0x00\n        /* \"CommitReveal.sol\":2183:2193  msg.sender */\n      caller\n        /* \"CommitReveal.sol\":2175:2194  commits[msg.sender] */\n      0xffffffffffffffffffffffffffffffffffffffff\n      and\n      0xffffffffffffffffffffffffffffffffffffffff\n      and\n      dup2\n      mstore\n      0x20\n      add\n      swap1\n      dup2\n      mstore\n      0x20\n      add\n      0x00\n      keccak256\n        /* \"CommitReveal.sol\":2175:2203  commits[msg.sender].revealed */\n      0x01\n      add\n      0x08\n        /* \"CommitReveal.sol\":2175:2208  commits[msg.sender].revealed=true */\n      0x0100\n      exp\n      dup2\n      sload\n      dup2\n      0xff\n      mul\n      not\n      and\n      swap1\n      dup4\n      iszero\n      iszero\n      mul\n      or\n      swap1\n      sstore\n      pop\n        /* \"CommitReveal.sol\":2305:2312  commits */\n      0x01\n        /* \"CommitReveal.sol\":2305:2324  commits[msg.sender] */\n      0x00\n        /* \"CommitReveal.sol\":2313:2323  msg.sender */\n      caller\n        /* \"CommitReveal.sol\":2305:2324  commits[msg.sender] */\n      0xffffffffffffffffffffffffffffffffffffffff\n      and\n      0xffffffffffffffffffffffffffffffffffffffff\n      and\n      dup2\n      mstore\n      0x20\n      add\n      swap1\n      dup2\n      mstore\n      0x20\n      add\n      0x00\n      keccak256\n        /* \"CommitReveal.sol\":2305:2331  commits[msg.sender].commit */\n      0x00\n      add\n      sload\n        /* \"CommitReveal.sol\":2277:2303  getSaltedHash(answer,salt) */\n      tag_56\n        /* \"CommitReveal.sol\":2291:2297  answer */\n      dup4\n        /* \"CommitReveal.sol\":2298:2302  salt */\n      dup4\n        /* \"CommitReveal.sol\":2277:2290  getSaltedHash */\n      tag_57\n        /* \"CommitReveal.sol\":2277:2303  getSaltedHash(answer,salt) */\n      jump\t// in\n    tag_56:\n        /* \"CommitReveal.sol\":2277:2331  getSaltedHash(answer,salt)==commits[msg.sender].commit */\n      eq\n        /* \"CommitReveal.sol\":2269:2398  require(getSaltedHash(answer,salt)==commits[msg.sender].commit,\"CommitReveal::revealAnswer: Revealed hash does not match commit\") */\n      tag_58\n      jumpi\n      mload(0x40)\n      0x08c379a000000000000000000000000000000000000000000000000000000000\n      dup2\n      mstore\n      0x04\n      add\n      tag_59\n      swap1\n      tag_60\n      jump\t// in\n    tag_59:\n      mload(0x40)\n      dup1\n      swap2\n      sub\n      swap1\n      revert\n    tag_58:\n        /* \"CommitReveal.sol\":2409:2445  RevealAnswer(msg.sender,answer,salt) */\n      0x8bed02c4d61e56ed1d90657e7a0ba48f15cca20fcc2899d7235221b2cb0423a6\n        /* \"CommitReveal.sol\":2422:2432  msg.sender */\n      caller\n        /* \"CommitReveal.sol\":2433:2439  answer */\n      dup4\n        /* \"CommitReveal.sol\":2440:2444  salt */\n      dup4\n        /* \"CommitReveal.sol\":2409:2445  RevealAnswer(msg.sender,answer,salt) */\n      mload(0x40)\n      tag_61\n      swap4\n      swap3\n      swap2\n      swap1\n      tag_62\n      jump\t// in\n    tag_61:\n      mload(0x40)\n      dup1\n      swap2\n      sub\n      swap1\n      log1\n        /* \"CommitReveal.sol\":1947:2450  function revealAnswer(bytes32 answer,bytes32 salt) public {... */\n      pop\n      pop\n      jump\t// out\n        /* \"CommitReveal.sol\":251:522  function commit(bytes32 dataHash) public {... */\n    tag_28:\n        /* \"CommitReveal.sol\":327:335  dataHash */\n      dup1\n        /* \"CommitReveal.sol\":298:305  commits */\n      0x01\n        /* \"CommitReveal.sol\":298:317  commits[msg.sender] */\n      0x00\n        /* \"CommitReveal.sol\":306:316  msg.sender */\n      caller\n        /* \"CommitReveal.sol\":298:317  commits[msg.sender] */\n      0xffffffffffffffffffffffffffffffffffffffff\n      and\n      0xffffffffffffffffffffffffffffffffffffffff\n      and\n      dup2\n      mstore\n      0x20\n      add\n      swap1\n      dup2\n      mstore\n      0x20\n      add\n      0x00\n      keccak256\n        /* \"CommitReveal.sol\":298:324  commits[msg.sender].commit */\n      0x00\n      add\n        /* \"CommitReveal.sol\":298:335  commits[msg.sender].commit = dataHash */\n      dup2\n      swap1\n      sstore\n      pop\n        /* \"CommitReveal.sol\":376:388  block.number */\n      number\n        /* \"CommitReveal.sol\":341:348  commits */\n      0x01\n        /* \"CommitReveal.sol\":341:360  commits[msg.sender] */\n      0x00\n        /* \"CommitReveal.sol\":349:359  msg.sender */\n      caller\n        /* \"CommitReveal.sol\":341:360  commits[msg.sender] */\n      0xffffffffffffffffffffffffffffffffffffffff\n      and\n      0xffffffffffffffffffffffffffffffffffffffff\n      and\n      dup2\n      mstore\n      0x20\n      add\n      swap1\n      dup2\n      mstore\n      0x20\n      add\n      0x00\n      keccak256\n        /* \"CommitReveal.sol\":341:366  commits[msg.sender].block */\n      0x01\n      add\n      0x00\n        /* \"CommitReveal.sol\":341:389  commits[msg.sender].block = uint64(block.number) */\n      0x0100\n      exp\n      dup2\n      sload\n      dup2\n      0xffffffffffffffff\n      mul\n      not\n      and\n      swap1\n      dup4\n      0xffffffffffffffff\n      and\n      mul\n      or\n      swap1\n      sstore\n      pop\n        /* \"CommitReveal.sol\":426:431  false */\n      0x00\n        /* \"CommitReveal.sol\":395:402  commits */\n      0x01\n        /* \"CommitReveal.sol\":395:414  commits[msg.sender] */\n      0x00\n        /* \"CommitReveal.sol\":403:413  msg.sender */\n      caller\n        /* \"CommitReveal.sol\":395:414  commits[msg.sender] */\n      0xffffffffffffffffffffffffffffffffffffffff\n      and\n      0xffffffffffffffffffffffffffffffffffffffff\n      and\n      dup2\n      mstore\n      0x20\n      add\n      swap1\n      dup2\n      mstore\n      0x20\n      add\n      0x00\n      keccak256\n        /* \"CommitReveal.sol\":395:423  commits[msg.sender].revealed */\n      0x01\n      add\n      0x08\n        /* \"CommitReveal.sol\":395:431  commits[msg.sender].revealed = false */\n      0x0100\n      exp\n      dup2\n      sload\n      dup2\n      0xff\n      mul\n      not\n      and\n      swap1\n      dup4\n      iszero\n      iszero\n      mul\n      or\n      swap1\n      sstore\n      pop\n        /* \"CommitReveal.sol\":442:517  CommitHash(msg.sender,commits[msg.sender].commit,commits[msg.sender].block) */\n      0x3c1a1f8f38335b17f751c6da4ba7d1865f26b3997535176f5080de9fad891603\n        /* \"CommitReveal.sol\":453:463  msg.sender */\n      caller\n        /* \"CommitReveal.sol\":464:471  commits */\n      0x01\n        /* \"CommitReveal.sol\":464:483  commits[msg.sender] */\n      0x00\n        /* \"CommitReveal.sol\":472:482  msg.sender */\n      caller\n        /* \"CommitReveal.sol\":464:483  commits[msg.sender] */\n      0xffffffffffffffffffffffffffffffffffffffff\n      and\n      0xffffffffffffffffffffffffffffffffffffffff\n      and\n      dup2\n      mstore\n      0x20\n      add\n      swap1\n      dup2\n      mstore\n      0x20\n      add\n      0x00\n      keccak256\n        /* \"CommitReveal.sol\":464:490  commits[msg.sender].commit */\n      0x00\n      add\n      sload\n        /* \"CommitReveal.sol\":491:498  commits */\n      0x01\n        /* \"CommitReveal.sol\":491:510  commits[msg.sender] */\n      0x00\n        /* \"CommitReveal.sol\":499:509  msg.sender */\n      caller\n        /* \"CommitReveal.sol\":491:510  commits[msg.sender] */\n      0xffffffffffffffffffffffffffffffffffffffff\n      and\n      0xffffffffffffffffffffffffffffffffffffffff\n      and\n      dup2\n      mstore\n      0x20\n      add\n      swap1\n      dup2\n      mstore\n      0x20\n      add\n      0x00\n      keccak256\n        /* \"CommitReveal.sol\":491:516  commits[msg.sender].block */\n      0x01\n      add\n      0x00\n      swap1\n      sload\n      swap1\n      0x0100\n      exp\n      swap1\n      div\n      0xffffffffffffffff\n      and\n        /* \"CommitReveal.sol\":442:517  CommitHash(msg.sender,commits[msg.sender].commit,commits[msg.sender].block) */\n      mload(0x40)\n      tag_64\n      swap4\n      swap3\n      swap2\n      swap1\n      tag_65\n      jump\t// in\n    tag_64:\n      mload(0x40)\n      dup1\n      swap2\n      sub\n      swap1\n      log1\n        /* \"CommitReveal.sol\":251:522  function commit(bytes32 dataHash) public {... */\n      pop\n      jump\t// out\n        /* \"CommitReveal.sol\":1816:1943  function getHash(bytes32 data) internal view returns(bytes32){... */\n    tag_34:\n        /* \"CommitReveal.sol\":1869:1876  bytes32 */\n      0x00\n        /* \"CommitReveal.sol\":1925:1929  this */\n      address\n        /* \"CommitReveal.sol\":1932:1936  data */\n      dup3\n        /* \"CommitReveal.sol\":1900:1937  abi.encodePacked(address(this), data) */\n      add(0x20, mload(0x40))\n      tag_67\n      swap3\n      swap2\n      swap1\n      tag_68\n      jump\t// in\n    tag_67:\n      mload(0x40)\n      0x20\n      dup2\n      dup4\n      sub\n      sub\n      dup2\n      mstore\n      swap1\n      0x40\n      mstore\n        /* \"CommitReveal.sol\":1890:1938  keccak256(abi.encodePacked(address(this), data)) */\n      dup1\n      mload\n      swap1\n      0x20\n      add\n      keccak256\n        /* \"CommitReveal.sol\":1883:1938  return keccak256(abi.encodePacked(address(this), data)) */\n      swap1\n      pop\n        /* \"CommitReveal.sol\":1816:1943  function getHash(bytes32 data) internal view returns(bytes32){... */\n      swap2\n      swap1\n      pop\n      jump\t// out\n        /* \"CommitReveal.sol\":2522:2674  function getSaltedHash(bytes32 data,bytes32 salt) internal view returns(bytes32){... */\n    tag_57:\n        /* \"CommitReveal.sol\":2594:2601  bytes32 */\n      0x00\n        /* \"CommitReveal.sol\":2650:2654  this */\n      address\n        /* \"CommitReveal.sol\":2657:2661  data */\n      dup4\n        /* \"CommitReveal.sol\":2663:2667  salt */\n      dup4\n        /* \"CommitReveal.sol\":2625:2668  abi.encodePacked(address(this), data, salt) */\n      add(0x20, mload(0x40))\n      tag_70\n      swap4\n      swap3\n      swap2\n      swap1\n      tag_71\n      jump\t// in\n    tag_70:\n      mload(0x40)\n      0x20\n      dup2\n      dup4\n      sub\n      sub\n      dup2\n      mstore\n      swap1\n      0x40\n      mstore\n        /* \"CommitReveal.sol\":2615:2669  keccak256(abi.encodePacked(address(this), data, salt)) */\n      dup1\n      mload\n      swap1\n      0x20\n      add\n      keccak256\n        /* \"CommitReveal.sol\":2608:2669  return keccak256(abi.encodePacked(address(this), data, salt)) */\n      swap1\n      pop\n        /* \"CommitReveal.sol\":2522:2674  function getSaltedHash(bytes32 data,bytes32 salt) internal view returns(bytes32){... */\n      swap3\n      swap2\n      pop\n      pop\n      jump\t// out\n        /* \"#utility.yul\":7:93   */\n    tag_72:\n        /* \"#utility.yul\":42:49   */\n      0x00\n        /* \"#utility.yul\":82:86   */\n      0xff\n        /* \"#utility.yul\":75:80   */\n      dup3\n        /* \"#utility.yul\":71:87   */\n      and\n        /* \"#utility.yul\":60:87   */\n      swap1\n      pop\n        /* \"#utility.yul\":7:93   */\n      swap2\n      swap1\n      pop\n      jump\t// out\n        /* \"#utility.yul\":99:211   */\n    tag_73:\n        /* \"#utility.yul\":182:204   */\n      tag_116\n        /* \"#utility.yul\":198:203   */\n      dup2\n        /* \"#utility.yul\":182:204   */\n      tag_72\n      jump\t// in\n    tag_116:\n        /* \"#utility.yul\":177:180   */\n      dup3\n        /* \"#utility.yul\":170:205   */\n      mstore\n        /* \"#utility.yul\":99:211   */\n      pop\n      pop\n      jump\t// out\n        /* \"#utility.yul\":217:431   */\n    tag_11:\n        /* \"#utility.yul\":306:310   */\n      0x00\n        /* \"#utility.yul\":344:346   */\n      0x20\n        /* \"#utility.yul\":333:342   */\n      dup3\n        /* \"#utility.yul\":329:347   */\n      add\n        /* \"#utility.yul\":321:347   */\n      swap1\n      pop\n        /* \"#utility.yul\":357:424   */\n      tag_118\n        /* \"#utility.yul\":421:422   */\n      0x00\n        /* \"#utility.yul\":410:419   */\n      dup4\n        /* \"#utility.yul\":406:423   */\n      add\n        /* \"#utility.yul\":397:403   */\n      dup5\n        /* \"#utility.yul\":357:424   */\n      tag_73\n      jump\t// in\n    tag_118:\n        /* \"#utility.yul\":217:431   */\n      swap3\n      swap2\n      pop\n      pop\n      jump\t// out\n        /* \"#utility.yul\":518:635   */\n    tag_75:\n        /* \"#utility.yul\":627:628   */\n      0x00\n        /* \"#utility.yul\":624:625   */\n      dup1\n        /* \"#utility.yul\":617:629   */\n      revert\n        /* \"#utility.yul\":764:841   */\n    tag_77:\n        /* \"#utility.yul\":801:808   */\n      0x00\n        /* \"#utility.yul\":830:835   */\n      dup2\n        /* \"#utility.yul\":819:835   */\n      swap1\n      pop\n        /* \"#utility.yul\":764:841   */\n      swap2\n      swap1\n      pop\n      jump\t// out\n        /* \"#utility.yul\":847:969   */\n    tag_78:\n        /* \"#utility.yul\":920:944   */\n      tag_124\n        /* \"#utility.yul\":938:943   */\n      dup2\n        /* \"#utility.yul\":920:944   */\n      tag_77\n      jump\t// in\n    tag_124:\n        /* \"#utility.yul\":913:918   */\n      dup2\n        /* \"#utility.yul\":910:945   */\n      eq\n        /* \"#utility.yul\":900:963   */\n      tag_125\n      jumpi\n        /* \"#utility.yul\":959:960   */\n      0x00\n        /* \"#utility.yul\":956:957   */\n      dup1\n        /* \"#utility.yul\":949:961   */\n      revert\n        /* \"#utility.yul\":900:963   */\n    tag_125:\n        /* \"#utility.yul\":847:969   */\n      pop\n      jump\t// out\n        /* \"#utility.yul\":975:1114   */\n    tag_79:\n        /* \"#utility.yul\":1021:1026   */\n      0x00\n        /* \"#utility.yul\":1059:1065   */\n      dup2\n        /* \"#utility.yul\":1046:1066   */\n      calldataload\n        /* \"#utility.yul\":1037:1066   */\n      swap1\n      pop\n        /* \"#utility.yul\":1075:1108   */\n      tag_127\n        /* \"#utility.yul\":1102:1107   */\n      dup2\n        /* \"#utility.yul\":1075:1108   */\n      tag_78\n      jump\t// in\n    tag_127:\n        /* \"#utility.yul\":975:1114   */\n      swap3\n      swap2\n      pop\n      pop\n      jump\t// out\n        /* \"#utility.yul\":1120:1449   */\n    tag_14:\n        /* \"#utility.yul\":1179:1185   */\n      0x00\n        /* \"#utility.yul\":1228:1230   */\n      0x20\n        /* \"#utility.yul\":1216:1225   */\n      dup3\n        /* \"#utility.yul\":1207:1214   */\n      dup5\n        /* \"#utility.yul\":1203:1226   */\n      sub\n        /* \"#utility.yul\":1199:1231   */\n      slt\n        /* \"#utility.yul\":1196:1315   */\n      iszero\n      tag_129\n      jumpi\n        /* \"#utility.yul\":1234:1313   */\n      tag_130\n      tag_75\n      jump\t// in\n    tag_130:\n        /* \"#utility.yul\":1196:1315   */\n    tag_129:\n        /* \"#utility.yul\":1354:1355   */\n      0x00\n        /* \"#utility.yul\":1379:1432   */\n      tag_131\n        /* \"#utility.yul\":1424:1431   */\n      dup5\n        /* \"#utility.yul\":1415:1421   */\n      dup3\n        /* \"#utility.yul\":1404:1413   */\n      dup6\n        /* \"#utility.yul\":1400:1422   */\n      add\n        /* \"#utility.yul\":1379:1432   */\n      tag_79\n      jump\t// in\n    tag_131:\n        /* \"#utility.yul\":1369:1432   */\n      swap2\n      pop\n        /* \"#utility.yul\":1325:1442   */\n      pop\n        /* \"#utility.yul\":1120:1449   */\n      swap3\n      swap2\n      pop\n      pop\n      jump\t// out\n        /* \"#utility.yul\":1455:1581   */\n    tag_80:\n        /* \"#utility.yul\":1492:1499   */\n      0x00\n        /* \"#utility.yul\":1532:1574   */\n      0xffffffffffffffffffffffffffffffffffffffff\n        /* \"#utility.yul\":1525:1530   */\n      dup3\n        /* \"#utility.yul\":1521:1575   */\n      and\n        /* \"#utility.yul\":1510:1575   */\n      swap1\n      pop\n        /* \"#utility.yul\":1455:1581   */\n      swap2\n      swap1\n      pop\n      jump\t// out\n        /* \"#utility.yul\":1587:1683   */\n    tag_81:\n        /* \"#utility.yul\":1624:1631   */\n      0x00\n        /* \"#utility.yul\":1653:1677   */\n      tag_134\n        /* \"#utility.yul\":1671:1676   */\n      dup3\n        /* \"#utility.yul\":1653:1677   */\n      tag_80\n      jump\t// in\n    tag_134:\n        /* \"#utility.yul\":1642:1677   */\n      swap1\n      pop\n        /* \"#utility.yul\":1587:1683   */\n      swap2\n      swap1\n      pop\n      jump\t// out\n        /* \"#utility.yul\":1689:1811   */\n    tag_82:\n        /* \"#utility.yul\":1762:1786   */\n      tag_136\n        /* \"#utility.yul\":1780:1785   */\n      dup2\n        /* \"#utility.yul\":1762:1786   */\n      tag_81\n      jump\t// in\n    tag_136:\n        /* \"#utility.yul\":1755:1760   */\n      dup2\n        /* \"#utility.yul\":1752:1787   */\n      eq\n        /* \"#utility.yul\":1742:1805   */\n      tag_137\n      jumpi\n        /* \"#utility.yul\":1801:1802   */\n      0x00\n        /* \"#utility.yul\":1798:1799   */\n      dup1\n        /* \"#utility.yul\":1791:1803   */\n      revert\n        /* \"#utility.yul\":1742:1805   */\n    tag_137:\n        /* \"#utility.yul\":1689:1811   */\n      pop\n      jump\t// out\n        /* \"#utility.yul\":1817:1956   */\n    tag_83:\n        /* \"#utility.yul\":1863:1868   */\n      0x00\n        /* \"#utility.yul\":1901:1907   */\n      dup2\n        /* \"#utility.yul\":1888:1908   */\n      calldataload\n        /* \"#utility.yul\":1879:1908   */\n      swap1\n      pop\n        /* \"#utility.yul\":1917:1950   */\n      tag_139\n        /* \"#utility.yul\":1944:1949   */\n      dup2\n        /* \"#utility.yul\":1917:1950   */\n      tag_82\n      jump\t// in\n    tag_139:\n        /* \"#utility.yul\":1817:1956   */\n      swap3\n      swap2\n      pop\n      pop\n      jump\t// out\n        /* \"#utility.yul\":1962:2291   */\n    tag_18:\n        /* \"#utility.yul\":2021:2027   */\n      0x00\n        /* \"#utility.yul\":2070:2072   */\n      0x20\n        /* \"#utility.yul\":2058:2067   */\n      dup3\n        /* \"#utility.yul\":2049:2056   */\n      dup5\n        /* \"#utility.yul\":2045:2068   */\n      sub\n        /* \"#utility.yul\":2041:2073   */\n      slt\n        /* \"#utility.yul\":2038:2157   */\n      iszero\n      tag_141\n      jumpi\n        /* \"#utility.yul\":2076:2155   */\n      tag_142\n      tag_75\n      jump\t// in\n    tag_142:\n        /* \"#utility.yul\":2038:2157   */\n    tag_141:\n        /* \"#utility.yul\":2196:2197   */\n      0x00\n        /* \"#utility.yul\":2221:2274   */\n      tag_143\n        /* \"#utility.yul\":2266:2273   */\n      dup5\n        /* \"#utility.yul\":2257:2263   */\n      dup3\n        /* \"#utility.yul\":2246:2255   */\n      dup6\n        /* \"#utility.yul\":2242:2264   */\n      add\n        /* \"#utility.yul\":2221:2274   */\n      tag_83\n      jump\t// in\n    tag_143:\n        /* \"#utility.yul\":2211:2274   */\n      swap2\n      pop\n        /* \"#utility.yul\":2167:2284   */\n      pop\n        /* \"#utility.yul\":1962:2291   */\n      swap3\n      swap2\n      pop\n      pop\n      jump\t// out\n        /* \"#utility.yul\":2297:2415   */\n    tag_84:\n        /* \"#utility.yul\":2384:2408   */\n      tag_145\n        /* \"#utility.yul\":2402:2407   */\n      dup2\n        /* \"#utility.yul\":2384:2408   */\n      tag_77\n      jump\t// in\n    tag_145:\n        /* \"#utility.yul\":2379:2382   */\n      dup3\n        /* \"#utility.yul\":2372:2409   */\n      mstore\n        /* \"#utility.yul\":2297:2415   */\n      pop\n      pop\n      jump\t// out\n        /* \"#utility.yul\":2421:2522   */\n    tag_85:\n        /* \"#utility.yul\":2457:2464   */\n      0x00\n        /* \"#utility.yul\":2497:2515   */\n      0xffffffffffffffff\n        /* \"#utility.yul\":2490:2495   */\n      dup3\n        /* \"#utility.yul\":2486:2516   */\n      and\n        /* \"#utility.yul\":2475:2516   */\n      swap1\n      pop\n        /* \"#utility.yul\":2421:2522   */\n      swap2\n      swap1\n      pop\n      jump\t// out\n        /* \"#utility.yul\":2528:2643   */\n    tag_86:\n        /* \"#utility.yul\":2613:2636   */\n      tag_148\n        /* \"#utility.yul\":2630:2635   */\n      dup2\n        /* \"#utility.yul\":2613:2636   */\n      tag_85\n      jump\t// in\n    tag_148:\n        /* \"#utility.yul\":2608:2611   */\n      dup3\n        /* \"#utility.yul\":2601:2637   */\n      mstore\n        /* \"#utility.yul\":2528:2643   */\n      pop\n      pop\n      jump\t// out\n        /* \"#utility.yul\":2649:2739   */\n    tag_87:\n        /* \"#utility.yul\":2683:2690   */\n      0x00\n        /* \"#utility.yul\":2726:2731   */\n      dup2\n        /* \"#utility.yul\":2719:2732   */\n      iszero\n        /* \"#utility.yul\":2712:2733   */\n      iszero\n        /* \"#utility.yul\":2701:2733   */\n      swap1\n      pop\n        /* \"#utility.yul\":2649:2739   */\n      swap2\n      swap1\n      pop\n      jump\t// out\n        /* \"#utility.yul\":2745:2854   */\n    tag_88:\n        /* \"#utility.yul\":2826:2847   */\n      tag_151\n        /* \"#utility.yul\":2841:2846   */\n      dup2\n        /* \"#utility.yul\":2826:2847   */\n      tag_87\n      jump\t// in\n    tag_151:\n        /* \"#utility.yul\":2821:2824   */\n      dup3\n        /* \"#utility.yul\":2814:2848   */\n      mstore\n        /* \"#utility.yul\":2745:2854   */\n      pop\n      pop\n      jump\t// out\n        /* \"#utility.yul\":2860:3286   */\n    tag_21:\n        /* \"#utility.yul\":3001:3005   */\n      0x00\n        /* \"#utility.yul\":3039:3041   */\n      0x60\n        /* \"#utility.yul\":3028:3037   */\n      dup3\n        /* \"#utility.yul\":3024:3042   */\n      add\n        /* \"#utility.yul\":3016:3042   */\n      swap1\n      pop\n        /* \"#utility.yul\":3052:3123   */\n      tag_153\n        /* \"#utility.yul\":3120:3121   */\n      0x00\n        /* \"#utility.yul\":3109:3118   */\n      dup4\n        /* \"#utility.yul\":3105:3122   */\n      add\n        /* \"#utility.yul\":3096:3102   */\n      dup7\n        /* \"#utility.yul\":3052:3123   */\n      tag_84\n      jump\t// in\n    tag_153:\n        /* \"#utility.yul\":3133:3203   */\n      tag_154\n        /* \"#utility.yul\":3199:3201   */\n      0x20\n        /* \"#utility.yul\":3188:3197   */\n      dup4\n        /* \"#utility.yul\":3184:3202   */\n      add\n        /* \"#utility.yul\":3175:3181   */\n      dup6\n        /* \"#utility.yul\":3133:3203   */\n      tag_86\n      jump\t// in\n    tag_154:\n        /* \"#utility.yul\":3213:3279   */\n      tag_155\n        /* \"#utility.yul\":3275:3277   */\n      0x40\n        /* \"#utility.yul\":3264:3273   */\n      dup4\n        /* \"#utility.yul\":3260:3278   */\n      add\n        /* \"#utility.yul\":3251:3257   */\n      dup5\n        /* \"#utility.yul\":3213:3279   */\n      tag_88\n      jump\t// in\n    tag_155:\n        /* \"#utility.yul\":2860:3286   */\n      swap5\n      swap4\n      pop\n      pop\n      pop\n      pop\n      jump\t// out\n        /* \"#utility.yul\":3292:3766   */\n    tag_24:\n        /* \"#utility.yul\":3360:3366   */\n      0x00\n        /* \"#utility.yul\":3368:3374   */\n      dup1\n        /* \"#utility.yul\":3417:3419   */\n      0x40\n        /* \"#utility.yul\":3405:3414   */\n      dup4\n        /* \"#utility.yul\":3396:3403   */\n      dup6\n        /* \"#utility.yul\":3392:3415   */\n      sub\n        /* \"#utility.yul\":3388:3420   */\n      slt\n        /* \"#utility.yul\":3385:3504   */\n      iszero\n      tag_157\n      jumpi\n        /* \"#utility.yul\":3423:3502   */\n      tag_158\n      tag_75\n      jump\t// in\n    tag_158:\n        /* \"#utility.yul\":3385:3504   */\n    tag_157:\n        /* \"#utility.yul\":3543:3544   */\n      0x00\n        /* \"#utility.yul\":3568:3621   */\n      tag_159\n        /* \"#utility.yul\":3613:3620   */\n      dup6\n        /* \"#utility.yul\":3604:3610   */\n      dup3\n        /* \"#utility.yul\":3593:3602   */\n      dup7\n        /* \"#utility.yul\":3589:3611   */\n      add\n        /* \"#utility.yul\":3568:3621   */\n      tag_79\n      jump\t// in\n    tag_159:\n        /* \"#utility.yul\":3558:3621   */\n      swap3\n      pop\n        /* \"#utility.yul\":3514:3631   */\n      pop\n        /* \"#utility.yul\":3670:3672   */\n      0x20\n        /* \"#utility.yul\":3696:3749   */\n      tag_160\n        /* \"#utility.yul\":3741:3748   */\n      dup6\n        /* \"#utility.yul\":3732:3738   */\n      dup3\n        /* \"#utility.yul\":3721:3730   */\n      dup7\n        /* \"#utility.yul\":3717:3739   */\n      add\n        /* \"#utility.yul\":3696:3749   */\n      tag_79\n      jump\t// in\n    tag_160:\n        /* \"#utility.yul\":3686:3749   */\n      swap2\n      pop\n        /* \"#utility.yul\":3641:3759   */\n      pop\n        /* \"#utility.yul\":3292:3766   */\n      swap3\n      pop\n      swap3\n      swap1\n      pop\n      jump\t// out\n        /* \"#utility.yul\":3772:3941   */\n    tag_89:\n        /* \"#utility.yul\":3856:3867   */\n      0x00\n        /* \"#utility.yul\":3890:3896   */\n      dup3\n        /* \"#utility.yul\":3885:3888   */\n      dup3\n        /* \"#utility.yul\":3878:3897   */\n      mstore\n        /* \"#utility.yul\":3930:3934   */\n      0x20\n        /* \"#utility.yul\":3925:3928   */\n      dup3\n        /* \"#utility.yul\":3921:3935   */\n      add\n        /* \"#utility.yul\":3906:3935   */\n      swap1\n      pop\n        /* \"#utility.yul\":3772:3941   */\n      swap3\n      swap2\n      pop\n      pop\n      jump\t// out\n        /* \"#utility.yul\":3947:4172   */\n    tag_90:\n        /* \"#utility.yul\":4087:4121   */\n      0x436f6d6d697452657665616c3a3a72657665616c3a20416c7265616479207265\n        /* \"#utility.yul\":4083:4084   */\n      0x00\n        /* \"#utility.yul\":4075:4081   */\n      dup3\n        /* \"#utility.yul\":4071:4085   */\n      add\n        /* \"#utility.yul\":4064:4122   */\n      mstore\n        /* \"#utility.yul\":4156:4164   */\n      0x7665616c65640000000000000000000000000000000000000000000000000000\n        /* \"#utility.yul\":4151:4153   */\n      0x20\n        /* \"#utility.yul\":4143:4149   */\n      dup3\n        /* \"#utility.yul\":4139:4154   */\n      add\n        /* \"#utility.yul\":4132:4165   */\n      mstore\n        /* \"#utility.yul\":3947:4172   */\n      pop\n      jump\t// out\n        /* \"#utility.yul\":4178:4544   */\n    tag_91:\n        /* \"#utility.yul\":4320:4323   */\n      0x00\n        /* \"#utility.yul\":4341:4408   */\n      tag_164\n        /* \"#utility.yul\":4405:4407   */\n      0x26\n        /* \"#utility.yul\":4400:4403   */\n      dup4\n        /* \"#utility.yul\":4341:4408   */\n      tag_89\n      jump\t// in\n    tag_164:\n        /* \"#utility.yul\":4334:4408   */\n      swap2\n      pop\n        /* \"#utility.yul\":4417:4510   */\n      tag_165\n        /* \"#utility.yul\":4506:4509   */\n      dup3\n        /* \"#utility.yul\":4417:4510   */\n      tag_90\n      jump\t// in\n    tag_165:\n        /* \"#utility.yul\":4535:4537   */\n      0x40\n        /* \"#utility.yul\":4530:4533   */\n      dup3\n        /* \"#utility.yul\":4526:4538   */\n      add\n        /* \"#utility.yul\":4519:4538   */\n      swap1\n      pop\n        /* \"#utility.yul\":4178:4544   */\n      swap2\n      swap1\n      pop\n      jump\t// out\n        /* \"#utility.yul\":4550:4969   */\n    tag_32:\n        /* \"#utility.yul\":4716:4720   */\n      0x00\n        /* \"#utility.yul\":4754:4756   */\n      0x20\n        /* \"#utility.yul\":4743:4752   */\n      dup3\n        /* \"#utility.yul\":4739:4757   */\n      add\n        /* \"#utility.yul\":4731:4757   */\n      swap1\n      pop\n        /* \"#utility.yul\":4803:4812   */\n      dup2\n        /* \"#utility.yul\":4797:4801   */\n      dup2\n        /* \"#utility.yul\":4793:4813   */\n      sub\n        /* \"#utility.yul\":4789:4790   */\n      0x00\n        /* \"#utility.yul\":4778:4787   */\n      dup4\n        /* \"#utility.yul\":4774:4791   */\n      add\n        /* \"#utility.yul\":4767:4814   */\n      mstore\n        /* \"#utility.yul\":4831:4962   */\n      tag_167\n        /* \"#utility.yul\":4957:4961   */\n      dup2\n        /* \"#utility.yul\":4831:4962   */\n      tag_91\n      jump\t// in\n    tag_167:\n        /* \"#utility.yul\":4823:4962   */\n      swap1\n      pop\n        /* \"#utility.yul\":4550:4969   */\n      swap2\n      swap1\n      pop\n      jump\t// out\n        /* \"#utility.yul\":4975:5219   */\n    tag_92:\n        /* \"#utility.yul\":5115:5149   */\n      0x436f6d6d697452657665616c3a3a72657665616c3a2052657665616c65642068\n        /* \"#utility.yul\":5111:5112   */\n      0x00\n        /* \"#utility.yul\":5103:5109   */\n      dup3\n        /* \"#utility.yul\":5099:5113   */\n      add\n        /* \"#utility.yul\":5092:5150   */\n      mstore\n        /* \"#utility.yul\":5184:5211   */\n      0x61736820646f6573206e6f74206d6174636820636f6d6d697400000000000000\n        /* \"#utility.yul\":5179:5181   */\n      0x20\n        /* \"#utility.yul\":5171:5177   */\n      dup3\n        /* \"#utility.yul\":5167:5182   */\n      add\n        /* \"#utility.yul\":5160:5212   */\n      mstore\n        /* \"#utility.yul\":4975:5219   */\n      pop\n      jump\t// out\n        /* \"#utility.yul\":5225:5591   */\n    tag_93:\n        /* \"#utility.yul\":5367:5370   */\n      0x00\n        /* \"#utility.yul\":5388:5455   */\n      tag_170\n        /* \"#utility.yul\":5452:5454   */\n      0x39\n        /* \"#utility.yul\":5447:5450   */\n      dup4\n        /* \"#utility.yul\":5388:5455   */\n      tag_89\n      jump\t// in\n    tag_170:\n        /* \"#utility.yul\":5381:5455   */\n      swap2\n      pop\n        /* \"#utility.yul\":5464:5557   */\n      tag_171\n        /* \"#utility.yul\":5553:5556   */\n      dup3\n        /* \"#utility.yul\":5464:5557   */\n      tag_92\n      jump\t// in\n    tag_171:\n        /* \"#utility.yul\":5582:5584   */\n      0x40\n        /* \"#utility.yul\":5577:5580   */\n      dup3\n        /* \"#utility.yul\":5573:5585   */\n      add\n        /* \"#utility.yul\":5566:5585   */\n      swap1\n      pop\n        /* \"#utility.yul\":5225:5591   */\n      swap2\n      swap1\n      pop\n      jump\t// out\n        /* \"#utility.yul\":5597:6016   */\n    tag_37:\n        /* \"#utility.yul\":5763:5767   */\n      0x00\n        /* \"#utility.yul\":5801:5803   */\n      0x20\n        /* \"#utility.yul\":5790:5799   */\n      dup3\n        /* \"#utility.yul\":5786:5804   */\n      add\n        /* \"#utility.yul\":5778:5804   */\n      swap1\n      pop\n        /* \"#utility.yul\":5850:5859   */\n      dup2\n        /* \"#utility.yul\":5844:5848   */\n      dup2\n        /* \"#utility.yul\":5840:5860   */\n      sub\n        /* \"#utility.yul\":5836:5837   */\n      0x00\n        /* \"#utility.yul\":5825:5834   */\n      dup4\n        /* \"#utility.yul\":5821:5838   */\n      add\n        /* \"#utility.yul\":5814:5861   */\n      mstore\n        /* \"#utility.yul\":5878:6009   */\n      tag_173\n        /* \"#utility.yul\":6004:6008   */\n      dup2\n        /* \"#utility.yul\":5878:6009   */\n      tag_93\n      jump\t// in\n    tag_173:\n        /* \"#utility.yul\":5870:6009   */\n      swap1\n      pop\n        /* \"#utility.yul\":5597:6016   */\n      swap2\n      swap1\n      pop\n      jump\t// out\n        /* \"#utility.yul\":6022:6312   */\n    tag_94:\n        /* \"#utility.yul\":6162:6196   */\n      0x436f6d6d697452657665616c3a3a72657665616c3a2052657665616c20616e64\n        /* \"#utility.yul\":6158:6159   */\n      0x00\n        /* \"#utility.yul\":6150:6156   */\n      dup3\n        /* \"#utility.yul\":6146:6160   */\n      add\n        /* \"#utility.yul\":6139:6197   */\n      mstore\n        /* \"#utility.yul\":6231:6265   */\n      0x20636f6d6d69742068617070656e6564206f6e207468652073616d6520626c6f\n        /* \"#utility.yul\":6226:6228   */\n      0x20\n        /* \"#utility.yul\":6218:6224   */\n      dup3\n        /* \"#utility.yul\":6214:6229   */\n      add\n        /* \"#utility.yul\":6207:6266   */\n      mstore\n        /* \"#utility.yul\":6300:6304   */\n      0x636b000000000000000000000000000000000000000000000000000000000000\n        /* \"#utility.yul\":6295:6297   */\n      0x40\n        /* \"#utility.yul\":6287:6293   */\n      dup3\n        /* \"#utility.yul\":6283:6298   */\n      add\n        /* \"#utility.yul\":6276:6305   */\n      mstore\n        /* \"#utility.yul\":6022:6312   */\n      pop\n      jump\t// out\n        /* \"#utility.yul\":6318:6684   */\n    tag_95:\n        /* \"#utility.yul\":6460:6463   */\n      0x00\n        /* \"#utility.yul\":6481:6548   */\n      tag_176\n        /* \"#utility.yul\":6545:6547   */\n      0x42\n        /* \"#utility.yul\":6540:6543   */\n      dup4\n        /* \"#utility.yul\":6481:6548   */\n      tag_89\n      jump\t// in\n    tag_176:\n        /* \"#utility.yul\":6474:6548   */\n      swap2\n      pop\n        /* \"#utility.yul\":6557:6650   */\n      tag_177\n        /* \"#utility.yul\":6646:6649   */\n      dup3\n        /* \"#utility.yul\":6557:6650   */\n      tag_94\n      jump\t// in\n    tag_177:\n        /* \"#utility.yul\":6675:6677   */\n      0x60\n        /* \"#utility.yul\":6670:6673   */\n      dup3\n        /* \"#utility.yul\":6666:6678   */\n      add\n        /* \"#utility.yul\":6659:6678   */\n      swap1\n      pop\n        /* \"#utility.yul\":6318:6684   */\n      swap2\n      swap1\n      pop\n      jump\t// out\n        /* \"#utility.yul\":6690:7109   */\n    tag_40:\n        /* \"#utility.yul\":6856:6860   */\n      0x00\n        /* \"#utility.yul\":6894:6896   */\n      0x20\n        /* \"#utility.yul\":6883:6892   */\n      dup3\n        /* \"#utility.yul\":6879:6897   */\n      add\n        /* \"#utility.yul\":6871:6897   */\n      swap1\n      pop\n        /* \"#utility.yul\":6943:6952   */\n      dup2\n        /* \"#utility.yul\":6937:6941   */\n      dup2\n        /* \"#utility.yul\":6933:6953   */\n      sub\n        /* \"#utility.yul\":6929:6930   */\n      0x00\n        /* \"#utility.yul\":6918:6927   */\n      dup4\n        /* \"#utility.yul\":6914:6931   */\n      add\n        /* \"#utility.yul\":6907:6954   */\n      mstore\n        /* \"#utility.yul\":6971:7102   */\n      tag_179\n        /* \"#utility.yul\":7097:7101   */\n      dup2\n        /* \"#utility.yul\":6971:7102   */\n      tag_95\n      jump\t// in\n    tag_179:\n        /* \"#utility.yul\":6963:7102   */\n      swap1\n      pop\n        /* \"#utility.yul\":6690:7109   */\n      swap2\n      swap1\n      pop\n      jump\t// out\n        /* \"#utility.yul\":7115:7295   */\n    tag_96:\n        /* \"#utility.yul\":7163:7240   */\n      0x4e487b7100000000000000000000000000000000000000000000000000000000\n        /* \"#utility.yul\":7160:7161   */\n      0x00\n        /* \"#utility.yul\":7153:7241   */\n      mstore\n        /* \"#utility.yul\":7260:7264   */\n      0x11\n        /* \"#utility.yul\":7257:7258   */\n      0x04\n        /* \"#utility.yul\":7250:7265   */\n      mstore\n        /* \"#utility.yul\":7284:7288   */\n      0x24\n        /* \"#utility.yul\":7281:7282   */\n      0x00\n        /* \"#utility.yul\":7274:7289   */\n      revert\n        /* \"#utility.yul\":7301:7506   */\n    tag_42:\n        /* \"#utility.yul\":7340:7343   */\n      0x00\n        /* \"#utility.yul\":7359:7378   */\n      tag_182\n        /* \"#utility.yul\":7376:7377   */\n      dup3\n        /* \"#utility.yul\":7359:7378   */\n      tag_85\n      jump\t// in\n    tag_182:\n        /* \"#utility.yul\":7354:7378   */\n      swap2\n      pop\n        /* \"#utility.yul\":7392:7411   */\n      tag_183\n        /* \"#utility.yul\":7409:7410   */\n      dup4\n        /* \"#utility.yul\":7392:7411   */\n      tag_85\n      jump\t// in\n    tag_183:\n        /* \"#utility.yul\":7387:7411   */\n      swap3\n      pop\n        /* \"#utility.yul\":7434:7435   */\n      dup3\n        /* \"#utility.yul\":7431:7432   */\n      dup3\n        /* \"#utility.yul\":7427:7436   */\n      add\n        /* \"#utility.yul\":7420:7436   */\n      swap1\n      pop\n        /* \"#utility.yul\":7457:7475   */\n      0xffffffffffffffff\n        /* \"#utility.yul\":7452:7455   */\n      dup2\n        /* \"#utility.yul\":7449:7476   */\n      gt\n        /* \"#utility.yul\":7446:7499   */\n      iszero\n      tag_184\n      jumpi\n        /* \"#utility.yul\":7479:7497   */\n      tag_185\n      tag_96\n      jump\t// in\n    tag_185:\n        /* \"#utility.yul\":7446:7499   */\n    tag_184:\n        /* \"#utility.yul\":7301:7506   */\n      swap3\n      swap2\n      pop\n      pop\n      jump\t// out\n        /* \"#utility.yul\":7512:7738   */\n    tag_97:\n        /* \"#utility.yul\":7652:7686   */\n      0x436f6d6d697452657665616c3a3a72657665616c3a2052657665616c65642074\n        /* \"#utility.yul\":7648:7649   */\n      0x00\n        /* \"#utility.yul\":7640:7646   */\n      dup3\n        /* \"#utility.yul\":7636:7650   */\n      add\n        /* \"#utility.yul\":7629:7687   */\n      mstore\n        /* \"#utility.yul\":7721:7730   */\n      0x6f6f206c61746500000000000000000000000000000000000000000000000000\n        /* \"#utility.yul\":7716:7718   */\n      0x20\n        /* \"#utility.yul\":7708:7714   */\n      dup3\n        /* \"#utility.yul\":7704:7719   */\n      add\n        /* \"#utility.yul\":7697:7731   */\n      mstore\n        /* \"#utility.yul\":7512:7738   */\n      pop\n      jump\t// out\n        /* \"#utility.yul\":7744:8110   */\n    tag_98:\n        /* \"#utility.yul\":7886:7889   */\n      0x00\n        /* \"#utility.yul\":7907:7974   */\n      tag_188\n        /* \"#utility.yul\":7971:7973   */\n      0x27\n        /* \"#utility.yul\":7966:7969   */\n      dup4\n        /* \"#utility.yul\":7907:7974   */\n      tag_89\n      jump\t// in\n    tag_188:\n        /* \"#utility.yul\":7900:7974   */\n      swap2\n      pop\n        /* \"#utility.yul\":7983:8076   */\n      tag_189\n        /* \"#utility.yul\":8072:8075   */\n      dup3\n        /* \"#utility.yul\":7983:8076   */\n      tag_97\n      jump\t// in\n    tag_189:\n        /* \"#utility.yul\":8101:8103   */\n      0x40\n        /* \"#utility.yul\":8096:8099   */\n      dup3\n        /* \"#utility.yul\":8092:8104   */\n      add\n        /* \"#utility.yul\":8085:8104   */\n      swap1\n      pop\n        /* \"#utility.yul\":7744:8110   */\n      swap2\n      swap1\n      pop\n      jump\t// out\n        /* \"#utility.yul\":8116:8535   */\n    tag_45:\n        /* \"#utility.yul\":8282:8286   */\n      0x00\n        /* \"#utility.yul\":8320:8322   */\n      0x20\n        /* \"#utility.yul\":8309:8318   */\n      dup3\n        /* \"#utility.yul\":8305:8323   */\n      add\n        /* \"#utility.yul\":8297:8323   */\n      swap1\n      pop\n        /* \"#utility.yul\":8369:8378   */\n      dup2\n        /* \"#utility.yul\":8363:8367   */\n      dup2\n        /* \"#utility.yul\":8359:8379   */\n      sub\n        /* \"#utility.yul\":8355:8356   */\n      0x00\n        /* \"#utility.yul\":8344:8353   */\n      dup4\n        /* \"#utility.yul\":8340:8357   */\n      add\n        /* \"#utility.yul\":8333:8380   */\n      mstore\n        /* \"#utility.yul\":8397:8528   */\n      tag_191\n        /* \"#utility.yul\":8523:8527   */\n      dup2\n        /* \"#utility.yul\":8397:8528   */\n      tag_98\n      jump\t// in\n    tag_191:\n        /* \"#utility.yul\":8389:8528   */\n      swap1\n      pop\n        /* \"#utility.yul\":8116:8535   */\n      swap2\n      swap1\n      pop\n      jump\t// out\n        /* \"#utility.yul\":8541:8620   */\n    tag_99:\n        /* \"#utility.yul\":8580:8587   */\n      0x00\n        /* \"#utility.yul\":8609:8614   */\n      dup2\n        /* \"#utility.yul\":8598:8614   */\n      swap1\n      pop\n        /* \"#utility.yul\":8541:8620   */\n      swap2\n      swap1\n      pop\n      jump\t// out\n        /* \"#utility.yul\":8626:8783   */\n    tag_100:\n        /* \"#utility.yul\":8731:8776   */\n      tag_194\n        /* \"#utility.yul\":8751:8775   */\n      tag_195\n        /* \"#utility.yul\":8769:8774   */\n      dup3\n        /* \"#utility.yul\":8751:8775   */\n      tag_77\n      jump\t// in\n    tag_195:\n        /* \"#utility.yul\":8731:8776   */\n      tag_99\n      jump\t// in\n    tag_194:\n        /* \"#utility.yul\":8726:8729   */\n      dup3\n        /* \"#utility.yul\":8719:8777   */\n      mstore\n        /* \"#utility.yul\":8626:8783   */\n      pop\n      pop\n      jump\t// out\n        /* \"#utility.yul\":8789:9186   */\n    tag_47:\n        /* \"#utility.yul\":8929:8932   */\n      0x00\n        /* \"#utility.yul\":8944:9019   */\n      tag_197\n        /* \"#utility.yul\":9015:9018   */\n      dup3\n        /* \"#utility.yul\":9006:9012   */\n      dup6\n        /* \"#utility.yul\":8944:9019   */\n      tag_100\n      jump\t// in\n    tag_197:\n        /* \"#utility.yul\":9044:9046   */\n      0x20\n        /* \"#utility.yul\":9039:9042   */\n      dup3\n        /* \"#utility.yul\":9035:9047   */\n      add\n        /* \"#utility.yul\":9028:9047   */\n      swap2\n      pop\n        /* \"#utility.yul\":9057:9132   */\n      tag_198\n        /* \"#utility.yul\":9128:9131   */\n      dup3\n        /* \"#utility.yul\":9119:9125   */\n      dup5\n        /* \"#utility.yul\":9057:9132   */\n      tag_100\n      jump\t// in\n    tag_198:\n        /* \"#utility.yul\":9157:9159   */\n      0x20\n        /* \"#utility.yul\":9152:9155   */\n      dup3\n        /* \"#utility.yul\":9148:9160   */\n      add\n        /* \"#utility.yul\":9141:9160   */\n      swap2\n      pop\n        /* \"#utility.yul\":9177:9180   */\n      dup2\n        /* \"#utility.yul\":9170:9180   */\n      swap1\n      pop\n        /* \"#utility.yul\":8789:9186   */\n      swap4\n      swap3\n      pop\n      pop\n      pop\n      jump\t// out\n        /* \"#utility.yul\":9192:9269   */\n    tag_101:\n        /* \"#utility.yul\":9229:9236   */\n      0x00\n        /* \"#utility.yul\":9258:9263   */\n      dup2\n        /* \"#utility.yul\":9247:9263   */\n      swap1\n      pop\n        /* \"#utility.yul\":9192:9269   */\n      swap2\n      swap1\n      pop\n      jump\t// out\n        /* \"#utility.yul\":9275:9455   */\n    tag_102:\n        /* \"#utility.yul\":9323:9400   */\n      0x4e487b7100000000000000000000000000000000000000000000000000000000\n        /* \"#utility.yul\":9320:9321   */\n      0x00\n        /* \"#utility.yul\":9313:9401   */\n      mstore\n        /* \"#utility.yul\":9420:9424   */\n      0x12\n        /* \"#utility.yul\":9417:9418   */\n      0x04\n        /* \"#utility.yul\":9410:9425   */\n      mstore\n        /* \"#utility.yul\":9444:9448   */\n      0x24\n        /* \"#utility.yul\":9441:9442   */\n      0x00\n        /* \"#utility.yul\":9434:9449   */\n      revert\n        /* \"#utility.yul\":9461:9637   */\n    tag_49:\n        /* \"#utility.yul\":9493:9494   */\n      0x00\n        /* \"#utility.yul\":9510:9530   */\n      tag_202\n        /* \"#utility.yul\":9528:9529   */\n      dup3\n        /* \"#utility.yul\":9510:9530   */\n      tag_101\n      jump\t// in\n    tag_202:\n        /* \"#utility.yul\":9505:9530   */\n      swap2\n      pop\n        /* \"#utility.yul\":9544:9564   */\n      tag_203\n        /* \"#utility.yul\":9562:9563   */\n      dup4\n        /* \"#utility.yul\":9544:9564   */\n      tag_101\n      jump\t// in\n    tag_203:\n        /* \"#utility.yul\":9539:9564   */\n      swap3\n      pop\n        /* \"#utility.yul\":9583:9584   */\n      dup3\n        /* \"#utility.yul\":9573:9608   */\n      tag_204\n      jumpi\n        /* \"#utility.yul\":9588:9606   */\n      tag_205\n      tag_102\n      jump\t// in\n    tag_205:\n        /* \"#utility.yul\":9573:9608   */\n    tag_204:\n        /* \"#utility.yul\":9629:9630   */\n      dup3\n        /* \"#utility.yul\":9626:9627   */\n      dup3\n        /* \"#utility.yul\":9622:9631   */\n      mod\n        /* \"#utility.yul\":9617:9631   */\n      swap1\n      pop\n        /* \"#utility.yul\":9461:9637   */\n      swap3\n      swap2\n      pop\n      pop\n      jump\t// out\n        /* \"#utility.yul\":9643:9761   */\n    tag_103:\n        /* \"#utility.yul\":9730:9754   */\n      tag_207\n        /* \"#utility.yul\":9748:9753   */\n      dup2\n        /* \"#utility.yul\":9730:9754   */\n      tag_81\n      jump\t// in\n    tag_207:\n        /* \"#utility.yul\":9725:9728   */\n      dup3\n        /* \"#utility.yul\":9718:9755   */\n      mstore\n        /* \"#utility.yul\":9643:9761   */\n      pop\n      pop\n      jump\t// out\n        /* \"#utility.yul\":9767:9885   */\n    tag_104:\n        /* \"#utility.yul\":9854:9878   */\n      tag_209\n        /* \"#utility.yul\":9872:9877   */\n      dup2\n        /* \"#utility.yul\":9854:9878   */\n      tag_101\n      jump\t// in\n    tag_209:\n        /* \"#utility.yul\":9849:9852   */\n      dup3\n        /* \"#utility.yul\":9842:9879   */\n      mstore\n        /* \"#utility.yul\":9767:9885   */\n      pop\n      pop\n      jump\t// out\n        /* \"#utility.yul\":9891:10333   */\n    tag_51:\n        /* \"#utility.yul\":10040:10044   */\n      0x00\n        /* \"#utility.yul\":10078:10080   */\n      0x60\n        /* \"#utility.yul\":10067:10076   */\n      dup3\n        /* \"#utility.yul\":10063:10081   */\n      add\n        /* \"#utility.yul\":10055:10081   */\n      swap1\n      pop\n        /* \"#utility.yul\":10091:10162   */\n      tag_211\n        /* \"#utility.yul\":10159:10160   */\n      0x00\n        /* \"#utility.yul\":10148:10157   */\n      dup4\n        /* \"#utility.yul\":10144:10161   */\n      add\n        /* \"#utility.yul\":10135:10141   */\n      dup7\n        /* \"#utility.yul\":10091:10162   */\n      tag_103\n      jump\t// in\n    tag_211:\n        /* \"#utility.yul\":10172:10244   */\n      tag_212\n        /* \"#utility.yul\":10240:10242   */\n      0x20\n        /* \"#utility.yul\":10229:10238   */\n      dup4\n        /* \"#utility.yul\":10225:10243   */\n      add\n        /* \"#utility.yul\":10216:10222   */\n      dup6\n        /* \"#utility.yul\":10172:10244   */\n      tag_84\n      jump\t// in\n    tag_212:\n        /* \"#utility.yul\":10254:10326   */\n      tag_213\n        /* \"#utility.yul\":10322:10324   */\n      0x40\n        /* \"#utility.yul\":10311:10320   */\n      dup4\n        /* \"#utility.yul\":10307:10325   */\n      add\n        /* \"#utility.yul\":10298:10304   */\n      dup5\n        /* \"#utility.yul\":10254:10326   */\n      tag_104\n      jump\t// in\n    tag_213:\n        /* \"#utility.yul\":9891:10333   */\n      swap5\n      swap4\n      pop\n      pop\n      pop\n      pop\n      jump\t// out\n        /* \"#utility.yul\":10339:10570   */\n    tag_105:\n        /* \"#utility.yul\":10479:10513   */\n      0x436f6d6d697452657665616c3a3a72657665616c416e737765723a20416c7265\n        /* \"#utility.yul\":10475:10476   */\n      0x00\n        /* \"#utility.yul\":10467:10473   */\n      dup3\n        /* \"#utility.yul\":10463:10477   */\n      add\n        /* \"#utility.yul\":10456:10514   */\n      mstore\n        /* \"#utility.yul\":10548:10562   */\n      0x6164792072657665616c65640000000000000000000000000000000000000000\n        /* \"#utility.yul\":10543:10545   */\n      0x20\n        /* \"#utility.yul\":10535:10541   */\n      dup3\n        /* \"#utility.yul\":10531:10546   */\n      add\n        /* \"#utility.yul\":10524:10563   */\n      mstore\n        /* \"#utility.yul\":10339:10570   */\n      pop\n      jump\t// out\n        /* \"#utility.yul\":10576:10942   */\n    tag_106:\n        /* \"#utility.yul\":10718:10721   */\n      0x00\n        /* \"#utility.yul\":10739:10806   */\n      tag_216\n        /* \"#utility.yul\":10803:10805   */\n      0x2c\n        /* \"#utility.yul\":10798:10801   */\n      dup4\n        /* \"#utility.yul\":10739:10806   */\n      tag_89\n      jump\t// in\n    tag_216:\n        /* \"#utility.yul\":10732:10806   */\n      swap2\n      pop\n        /* \"#utility.yul\":10815:10908   */\n      tag_217\n        /* \"#utility.yul\":10904:10907   */\n      dup3\n        /* \"#utility.yul\":10815:10908   */\n      tag_105\n      jump\t// in\n    tag_217:\n        /* \"#utility.yul\":10933:10935   */\n      0x40\n        /* \"#utility.yul\":10928:10931   */\n      dup3\n        /* \"#utility.yul\":10924:10936   */\n      add\n        /* \"#utility.yul\":10917:10936   */\n      swap1\n      pop\n        /* \"#utility.yul\":10576:10942   */\n      swap2\n      swap1\n      pop\n      jump\t// out\n        /* \"#utility.yul\":10948:11367   */\n    tag_55:\n        /* \"#utility.yul\":11114:11118   */\n      0x00\n        /* \"#utility.yul\":11152:11154   */\n      0x20\n        /* \"#utility.yul\":11141:11150   */\n      dup3\n        /* \"#utility.yul\":11137:11155   */\n      add\n        /* \"#utility.yul\":11129:11155   */\n      swap1\n      pop\n        /* \"#utility.yul\":11201:11210   */\n      dup2\n        /* \"#utility.yul\":11195:11199   */\n      dup2\n        /* \"#utility.yul\":11191:11211   */\n      sub\n        /* \"#utility.yul\":11187:11188   */\n      0x00\n        /* \"#utility.yul\":11176:11185   */\n      dup4\n        /* \"#utility.yul\":11172:11189   */\n      add\n        /* \"#utility.yul\":11165:11212   */\n      mstore\n        /* \"#utility.yul\":11229:11360   */\n      tag_219\n        /* \"#utility.yul\":11355:11359   */\n      dup2\n        /* \"#utility.yul\":11229:11360   */\n      tag_106\n      jump\t// in\n    tag_219:\n        /* \"#utility.yul\":11221:11360   */\n      swap1\n      pop\n        /* \"#utility.yul\":10948:11367   */\n      swap2\n      swap1\n      pop\n      jump\t// out\n        /* \"#utility.yul\":11373:11623   */\n    tag_107:\n        /* \"#utility.yul\":11513:11547   */\n      0x436f6d6d697452657665616c3a3a72657665616c416e737765723a2052657665\n        /* \"#utility.yul\":11509:11510   */\n      0x00\n        /* \"#utility.yul\":11501:11507   */\n      dup3\n        /* \"#utility.yul\":11497:11511   */\n      add\n        /* \"#utility.yul\":11490:11548   */\n      mstore\n        /* \"#utility.yul\":11582:11615   */\n      0x616c6564206861736820646f6573206e6f74206d6174636820636f6d6d697400\n        /* \"#utility.yul\":11577:11579   */\n      0x20\n        /* \"#utility.yul\":11569:11575   */\n      dup3\n        /* \"#utility.yul\":11565:11580   */\n      add\n        /* \"#utility.yul\":11558:11616   */\n      mstore\n        /* \"#utility.yul\":11373:11623   */\n      pop\n      jump\t// out\n        /* \"#utility.yul\":11629:11995   */\n    tag_108:\n        /* \"#utility.yul\":11771:11774   */\n      0x00\n        /* \"#utility.yul\":11792:11859   */\n      tag_222\n        /* \"#utility.yul\":11856:11858   */\n      0x3f\n        /* \"#utility.yul\":11851:11854   */\n      dup4\n        /* \"#utility.yul\":11792:11859   */\n      tag_89\n      jump\t// in\n    tag_222:\n        /* \"#utility.yul\":11785:11859   */\n      swap2\n      pop\n        /* \"#utility.yul\":11868:11961   */\n      tag_223\n        /* \"#utility.yul\":11957:11960   */\n      dup3\n        /* \"#utility.yul\":11868:11961   */\n      tag_107\n      jump\t// in\n    tag_223:\n        /* \"#utility.yul\":11986:11988   */\n      0x40\n        /* \"#utility.yul\":11981:11984   */\n      dup3\n        /* \"#utility.yul\":11977:11989   */\n      add\n        /* \"#utility.yul\":11970:11989   */\n      swap1\n      pop\n        /* \"#utility.yul\":11629:11995   */\n      swap2\n      swap1\n      pop\n      jump\t// out\n        /* \"#utility.yul\":12001:12420   */\n    tag_60:\n        /* \"#utility.yul\":12167:12171   */\n      0x00\n        /* \"#utility.yul\":12205:12207   */\n      0x20\n        /* \"#utility.yul\":12194:12203   */\n      dup3\n        /* \"#utility.yul\":12190:12208   */\n      add\n        /* \"#utility.yul\":12182:12208   */\n      swap1\n      pop\n        /* \"#utility.yul\":12254:12263   */\n      dup2\n        /* \"#utility.yul\":12248:12252   */\n      dup2\n        /* \"#utility.yul\":12244:12264   */\n      sub\n        /* \"#utility.yul\":12240:12241   */\n      0x00\n        /* \"#utility.yul\":12229:12238   */\n      dup4\n        /* \"#utility.yul\":12225:12242   */\n      add\n        /* \"#utility.yul\":12218:12265   */\n      mstore\n        /* \"#utility.yul\":12282:12413   */\n      tag_225\n        /* \"#utility.yul\":12408:12412   */\n      dup2\n        /* \"#utility.yul\":12282:12413   */\n      tag_108\n      jump\t// in\n    tag_225:\n        /* \"#utility.yul\":12274:12413   */\n      swap1\n      pop\n        /* \"#utility.yul\":12001:12420   */\n      swap2\n      swap1\n      pop\n      jump\t// out\n        /* \"#utility.yul\":12426:12868   */\n    tag_62:\n        /* \"#utility.yul\":12575:12579   */\n      0x00\n        /* \"#utility.yul\":12613:12615   */\n      0x60\n        /* \"#utility.yul\":12602:12611   */\n      dup3\n        /* \"#utility.yul\":12598:12616   */\n      add\n        /* \"#utility.yul\":12590:12616   */\n      swap1\n      pop\n        /* \"#utility.yul\":12626:12697   */\n      tag_227\n        /* \"#utility.yul\":12694:12695   */\n      0x00\n        /* \"#utility.yul\":12683:12692   */\n      dup4\n        /* \"#utility.yul\":12679:12696   */\n      add\n        /* \"#utility.yul\":12670:12676   */\n      dup7\n        /* \"#utility.yul\":12626:12697   */\n      tag_103\n      jump\t// in\n    tag_227:\n        /* \"#utility.yul\":12707:12779   */\n      tag_228\n        /* \"#utility.yul\":12775:12777   */\n      0x20\n        /* \"#utility.yul\":12764:12773   */\n      dup4\n        /* \"#utility.yul\":12760:12778   */\n      add\n        /* \"#utility.yul\":12751:12757   */\n      dup6\n        /* \"#utility.yul\":12707:12779   */\n      tag_84\n      jump\t// in\n    tag_228:\n        /* \"#utility.yul\":12789:12861   */\n      tag_229\n        /* \"#utility.yul\":12857:12859   */\n      0x40\n        /* \"#utility.yul\":12846:12855   */\n      dup4\n        /* \"#utility.yul\":12842:12860   */\n      add\n        /* \"#utility.yul\":12833:12839   */\n      dup5\n        /* \"#utility.yul\":12789:12861   */\n      tag_84\n      jump\t// in\n    tag_229:\n        /* \"#utility.yul\":12426:12868   */\n      swap5\n      swap4\n      pop\n      pop\n      pop\n      pop\n      jump\t// out\n        /* \"#utility.yul\":12874:13312   */\n    tag_65:\n        /* \"#utility.yul\":13021:13025   */\n      0x00\n        /* \"#utility.yul\":13059:13061   */\n      0x60\n        /* \"#utility.yul\":13048:13057   */\n      dup3\n        /* \"#utility.yul\":13044:13062   */\n      add\n        /* \"#utility.yul\":13036:13062   */\n      swap1\n      pop\n        /* \"#utility.yul\":13072:13143   */\n      tag_231\n        /* \"#utility.yul\":13140:13141   */\n      0x00\n        /* \"#utility.yul\":13129:13138   */\n      dup4\n        /* \"#utility.yul\":13125:13142   */\n      add\n        /* \"#utility.yul\":13116:13122   */\n      dup7\n        /* \"#utility.yul\":13072:13143   */\n      tag_103\n      jump\t// in\n    tag_231:\n        /* \"#utility.yul\":13153:13225   */\n      tag_232\n        /* \"#utility.yul\":13221:13223   */\n      0x20\n        /* \"#utility.yul\":13210:13219   */\n      dup4\n        /* \"#utility.yul\":13206:13224   */\n      add\n        /* \"#utility.yul\":13197:13203   */\n      dup6\n        /* \"#utility.yul\":13153:13225   */\n      tag_84\n      jump\t// in\n    tag_232:\n        /* \"#utility.yul\":13235:13305   */\n      tag_233\n        /* \"#utility.yul\":13301:13303   */\n      0x40\n        /* \"#utility.yul\":13290:13299   */\n      dup4\n        /* \"#utility.yul\":13286:13304   */\n      add\n        /* \"#utility.yul\":13277:13283   */\n      dup5\n        /* \"#utility.yul\":13235:13305   */\n      tag_86\n      jump\t// in\n    tag_233:\n        /* \"#utility.yul\":12874:13312   */\n      swap5\n      swap4\n      pop\n      pop\n      pop\n      pop\n      jump\t// out\n        /* \"#utility.yul\":13318:13412   */\n    tag_109:\n        /* \"#utility.yul\":13351:13359   */\n      0x00\n        /* \"#utility.yul\":13399:13404   */\n      dup2\n        /* \"#utility.yul\":13395:13397   */\n      0x60\n        /* \"#utility.yul\":13391:13405   */\n      shl\n        /* \"#utility.yul\":13370:13405   */\n      swap1\n      pop\n        /* \"#utility.yul\":13318:13412   */\n      swap2\n      swap1\n      pop\n      jump\t// out\n        /* \"#utility.yul\":13418:13512   */\n    tag_110:\n        /* \"#utility.yul\":13457:13464   */\n      0x00\n        /* \"#utility.yul\":13486:13506   */\n      tag_236\n        /* \"#utility.yul\":13500:13505   */\n      dup3\n        /* \"#utility.yul\":13486:13506   */\n      tag_109\n      jump\t// in\n    tag_236:\n        /* \"#utility.yul\":13475:13506   */\n      swap1\n      pop\n        /* \"#utility.yul\":13418:13512   */\n      swap2\n      swap1\n      pop\n      jump\t// out\n        /* \"#utility.yul\":13518:13618   */\n    tag_111:\n        /* \"#utility.yul\":13557:13564   */\n      0x00\n        /* \"#utility.yul\":13586:13612   */\n      tag_238\n        /* \"#utility.yul\":13606:13611   */\n      dup3\n        /* \"#utility.yul\":13586:13612   */\n      tag_110\n      jump\t// in\n    tag_238:\n        /* \"#utility.yul\":13575:13612   */\n      swap1\n      pop\n        /* \"#utility.yul\":13518:13618   */\n      swap2\n      swap1\n      pop\n      jump\t// out\n        /* \"#utility.yul\":13624:13781   */\n    tag_112:\n        /* \"#utility.yul\":13729:13774   */\n      tag_240\n        /* \"#utility.yul\":13749:13773   */\n      tag_241\n        /* \"#utility.yul\":13767:13772   */\n      dup3\n        /* \"#utility.yul\":13749:13773   */\n      tag_81\n      jump\t// in\n    tag_241:\n        /* \"#utility.yul\":13729:13774   */\n      tag_111\n      jump\t// in\n    tag_240:\n        /* \"#utility.yul\":13724:13727   */\n      dup3\n        /* \"#utility.yul\":13717:13775   */\n      mstore\n        /* \"#utility.yul\":13624:13781   */\n      pop\n      pop\n      jump\t// out\n        /* \"#utility.yul\":13787:14184   */\n    tag_68:\n        /* \"#utility.yul\":13927:13930   */\n      0x00\n        /* \"#utility.yul\":13942:14017   */\n      tag_243\n        /* \"#utility.yul\":14013:14016   */\n      dup3\n        /* \"#utility.yul\":14004:14010   */\n      dup6\n        /* \"#utility.yul\":13942:14017   */\n      tag_112\n      jump\t// in\n    tag_243:\n        /* \"#utility.yul\":14042:14044   */\n      0x14\n        /* \"#utility.yul\":14037:14040   */\n      dup3\n        /* \"#utility.yul\":14033:14045   */\n      add\n        /* \"#utility.yul\":14026:14045   */\n      swap2\n      pop\n        /* \"#utility.yul\":14055:14130   */\n      tag_244\n        /* \"#utility.yul\":14126:14129   */\n      dup3\n        /* \"#utility.yul\":14117:14123   */\n      dup5\n        /* \"#utility.yul\":14055:14130   */\n      tag_100\n      jump\t// in\n    tag_244:\n        /* \"#utility.yul\":14155:14157   */\n      0x20\n        /* \"#utility.yul\":14150:14153   */\n      dup3\n        /* \"#utility.yul\":14146:14158   */\n      add\n        /* \"#utility.yul\":14139:14158   */\n      swap2\n      pop\n        /* \"#utility.yul\":14175:14178   */\n      dup2\n        /* \"#utility.yul\":14168:14178   */\n      swap1\n      pop\n        /* \"#utility.yul\":13787:14184   */\n      swap4\n      swap3\n      pop\n      pop\n      pop\n      jump\t// out\n        /* \"#utility.yul\":14190:14728   */\n    tag_71:\n        /* \"#utility.yul\":14358:14361   */\n      0x00\n        /* \"#utility.yul\":14373:14448   */\n      tag_246\n        /* \"#utility.yul\":14444:14447   */\n      dup3\n        /* \"#utility.yul\":14435:14441   */\n      dup7\n        /* \"#utility.yul\":14373:14448   */\n      tag_112\n      jump\t// in\n    tag_246:\n        /* \"#utility.yul\":14473:14475   */\n      0x14\n        /* \"#utility.yul\":14468:14471   */\n      dup3\n        /* \"#utility.yul\":14464:14476   */\n      add\n        /* \"#utility.yul\":14457:14476   */\n      swap2\n      pop\n        /* \"#utility.yul\":14486:14561   */\n      tag_247\n        /* \"#utility.yul\":14557:14560   */\n      dup3\n        /* \"#utility.yul\":14548:14554   */\n      dup6\n        /* \"#utility.yul\":14486:14561   */\n      tag_100\n      jump\t// in\n    tag_247:\n        /* \"#utility.yul\":14586:14588   */\n      0x20\n        /* \"#utility.yul\":14581:14584   */\n      dup3\n        /* \"#utility.yul\":14577:14589   */\n      add\n        /* \"#utility.yul\":14570:14589   */\n      swap2\n      pop\n        /* \"#utility.yul\":14599:14674   */\n      tag_248\n        /* \"#utility.yul\":14670:14673   */\n      dup3\n        /* \"#utility.yul\":14661:14667   */\n      dup5\n        /* \"#utility.yul\":14599:14674   */\n      tag_100\n      jump\t// in\n    tag_248:\n        /* \"#utility.yul\":14699:14701   */\n      0x20\n        /* \"#utility.yul\":14694:14697   */\n      dup3\n        /* \"#utility.yul\":14690:14702   */\n      add\n        /* \"#utility.yul\":14683:14702   */\n      swap2\n      pop\n        /* \"#utility.yul\":14719:14722   */\n      dup2\n        /* \"#utility.yul\":14712:14722   */\n      swap1\n      pop\n        /* \"#utility.yul\":14190:14728   */\n      swap5\n      swap4\n      pop\n      pop\n      pop\n      pop\n      jump\t// out\n\n    auxdata: 0xa26469706673582212203b650978a40e30041e50b9e2e3d303b4dcc7a3be12fcb6d0e63f7421710a78bf64736f6c63430008180033\n}\n",
				"bytecode": {
					"linkReferences": {},
					"object": "608060405260645f806101000a81548160ff021916908360ff160217905550348015610029575f80fd5b50611117806100375f395ff3fe608060405234801561000f575f80fd5b5060043610610055575f3560e01c80636ac5db1914610059578063701fd0f1146100775780637b43a8e614610093578063de8e9033146100c5578063f14fcbc8146100e1575b5f80fd5b6100616100fd565b60405161006e9190610917565b60405180910390f35b610091600480360381019061008c9190610967565b61010d565b005b6100ad60048036038101906100a891906109ec565b6104cb565b6040516100bc93929190610a62565b60405180910390f35b6100df60048036038101906100da9190610a97565b610511565b005b6100fb60048036038101906100f69190610967565b6106c5565b005b5f8054906101000a900460ff1681565b5f151560015f3373ffffffffffffffffffffffffffffffffffffffff1673ffffffffffffffffffffffffffffffffffffffff1681526020019081526020015f2060010160089054906101000a900460ff161515146101a0576040517f08c379a000000000000000000000000000000000000000000000000000000000815260040161019790610b55565b60405180910390fd5b6001805f3373ffffffffffffffffffffffffffffffffffffffff1673ffffffffffffffffffffffffffffffffffffffff1681526020019081526020015f2060010160086101000a81548160ff02191690831515021790555060015f3373ffffffffffffffffffffffffffffffffffffffff1673ffffffffffffffffffffffffffffffffffffffff1681526020019081526020015f205f015461024182610897565b14610281576040517f08c379a000000000000000000000000000000000000000000000000000000000815260040161027890610be3565b60405180910390fd5b60015f3373ffffffffffffffffffffffffffffffffffffffff1673ffffffffffffffffffffffffffffffffffffffff1681526020019081526020015f206001015f9054906101000a900467ffffffffffffffff1667ffffffffffffffff164367ffffffffffffffff161161032a576040517f08c379a000000000000000000000000000000000000000000000000000000000815260040161032190610c97565b60405180910390fd5b60fa60015f3373ffffffffffffffffffffffffffffffffffffffff1673ffffffffffffffffffffffffffffffffffffffff1681526020019081526020015f206001015f9054906101000a900467ffffffffffffffff1661038a9190610ce2565b67ffffffffffffffff164367ffffffffffffffff1611156103e0576040517f08c379a00000000000000000000000000000000000000000000000000000000081526004016103d790610d8d565b60405180910390fd5b5f60015f3373ffffffffffffffffffffffffffffffffffffffff1673ffffffffffffffffffffffffffffffffffffffff1681526020019081526020015f206001015f9054906101000a900467ffffffffffffffff1667ffffffffffffffff164090505f805f9054906101000a900460ff1660ff168284604051602001610467929190610dcb565b604051602081830303815290604052805190602001205f1c6104899190610e2c565b90507fbc016dd1cadeaefcb851af7a0a93532e0023d536894b730801f7bcfe7065bcc23384836040516104be93929190610e7a565b60405180910390a1505050565b6001602052805f5260405f205f91509050805f015490806001015f9054906101000a900467ffffffffffffffff16908060010160089054906101000a900460ff16905083565b5f151560015f3373ffffffffffffffffffffffffffffffffffffffff1673ffffffffffffffffffffffffffffffffffffffff1681526020019081526020015f2060010160089054906101000a900460ff161515146105a4576040517f08c379a000000000000000000000000000000000000000000000000000000000815260040161059b90610f1f565b60405180910390fd5b6001805f3373ffffffffffffffffffffffffffffffffffffffff1673ffffffffffffffffffffffffffffffffffffffff1681526020019081526020015f2060010160086101000a81548160ff02191690831515021790555060015f3373ffffffffffffffffffffffffffffffffffffffff1673ffffffffffffffffffffffffffffffffffffffff1681526020019081526020015f205f015461064683836108c8565b14610686576040517f08c379a000000000000000000000000000000000000000000000000000000000815260040161067d90610fad565b60405180910390fd5b7f8bed02c4d61e56ed1d90657e7a0ba48f15cca20fcc2899d7235221b2cb0423a63383836040516106b993929190610fcb565b60405180910390a15050565b8060015f3373ffffffffffffffffffffffffffffffffffffffff1673ffffffffffffffffffffffffffffffffffffffff1681526020019081526020015f205f01819055504360015f3373ffffffffffffffffffffffffffffffffffffffff1673ffffffffffffffffffffffffffffffffffffffff1681526020019081526020015f206001015f6101000a81548167ffffffffffffffff021916908367ffffffffffffffff1602179055505f60015f3373ffffffffffffffffffffffffffffffffffffffff1673ffffffffffffffffffffffffffffffffffffffff1681526020019081526020015f2060010160086101000a81548160ff0219169083151502179055507f3c1a1f8f38335b17f751c6da4ba7d1865f26b3997535176f5080de9fad8916033360015f3373ffffffffffffffffffffffffffffffffffffffff1673ffffffffffffffffffffffffffffffffffffffff1681526020019081526020015f205f015460015f3373ffffffffffffffffffffffffffffffffffffffff1673ffffffffffffffffffffffffffffffffffffffff1681526020019081526020015f206001015f9054906101000a900467ffffffffffffffff1660405161088c93929190611000565b60405180910390a150565b5f30826040516020016108ab92919061107a565b604051602081830303815290604052805190602001209050919050565b5f3083836040516020016108de939291906110a5565b60405160208183030381529060405280519060200120905092915050565b5f60ff82169050919050565b610911816108fc565b82525050565b5f60208201905061092a5f830184610908565b92915050565b5f80fd5b5f819050919050565b61094681610934565b8114610950575f80fd5b50565b5f813590506109618161093d565b92915050565b5f6020828403121561097c5761097b610930565b5b5f61098984828501610953565b91505092915050565b5f73ffffffffffffffffffffffffffffffffffffffff82169050919050565b5f6109bb82610992565b9050919050565b6109cb816109b1565b81146109d5575f80fd5b50565b5f813590506109e6816109c2565b92915050565b5f60208284031215610a0157610a00610930565b5b5f610a0e848285016109d8565b91505092915050565b610a2081610934565b82525050565b5f67ffffffffffffffff82169050919050565b610a4281610a26565b82525050565b5f8115159050919050565b610a5c81610a48565b82525050565b5f606082019050610a755f830186610a17565b610a826020830185610a39565b610a8f6040830184610a53565b949350505050565b5f8060408385031215610aad57610aac610930565b5b5f610aba85828601610953565b9250506020610acb85828601610953565b9150509250929050565b5f82825260208201905092915050565b7f436f6d6d697452657665616c3a3a72657665616c3a20416c72656164792072655f8201527f7665616c65640000000000000000000000000000000000000000000000000000602082015250565b5f610b3f602683610ad5565b9150610b4a82610ae5565b604082019050919050565b5f6020820190508181035f830152610b6c81610b33565b9050919050565b7f436f6d6d697452657665616c3a3a72657665616c3a2052657665616c656420685f8201527f61736820646f6573206e6f74206d6174636820636f6d6d697400000000000000602082015250565b5f610bcd603983610ad5565b9150610bd882610b73565b604082019050919050565b5f6020820190508181035f830152610bfa81610bc1565b9050919050565b7f436f6d6d697452657665616c3a3a72657665616c3a2052657665616c20616e645f8201527f20636f6d6d69742068617070656e6564206f6e207468652073616d6520626c6f60208201527f636b000000000000000000000000000000000000000000000000000000000000604082015250565b5f610c81604283610ad5565b9150610c8c82610c01565b606082019050919050565b5f6020820190508181035f830152610cae81610c75565b9050919050565b7f4e487b71000000000000000000000000000000000000000000000000000000005f52601160045260245ffd5b5f610cec82610a26565b9150610cf783610a26565b9250828201905067ffffffffffffffff811115610d1757610d16610cb5565b5b92915050565b7f436f6d6d697452657665616c3a3a72657665616c3a2052657665616c656420745f8201527f6f6f206c61746500000000000000000000000000000000000000000000000000602082015250565b5f610d77602783610ad5565b9150610d8282610d1d565b604082019050919050565b5f6020820190508181035f830152610da481610d6b565b9050919050565b5f819050919050565b610dc5610dc082610934565b610dab565b82525050565b5f610dd68285610db4565b602082019150610de68284610db4565b6020820191508190509392505050565b5f819050919050565b7f4e487b71000000000000000000000000000000000000000000000000000000005f52601260045260245ffd5b5f610e3682610df6565b9150610e4183610df6565b925082610e5157610e50610dff565b5b828206905092915050565b610e65816109b1565b82525050565b610e7481610df6565b82525050565b5f606082019050610e8d5f830186610e5c565b610e9a6020830185610a17565b610ea76040830184610e6b565b949350505050565b7f436f6d6d697452657665616c3a3a72657665616c416e737765723a20416c72655f8201527f6164792072657665616c65640000000000000000000000000000000000000000602082015250565b5f610f09602c83610ad5565b9150610f1482610eaf565b604082019050919050565b5f6020820190508181035f830152610f3681610efd565b9050919050565b7f436f6d6d697452657665616c3a3a72657665616c416e737765723a20526576655f8201527f616c6564206861736820646f6573206e6f74206d6174636820636f6d6d697400602082015250565b5f610f97603f83610ad5565b9150610fa282610f3d565b604082019050919050565b5f6020820190508181035f830152610fc481610f8b565b9050919050565b5f606082019050610fde5f830186610e5c565b610feb6020830185610a17565b610ff86040830184610a17565b949350505050565b5f6060820190506110135f830186610e5c565b6110206020830185610a17565b61102d6040830184610a39565b949350505050565b5f8160601b9050919050565b5f61104b82611035565b9050919050565b5f61105c82611041565b9050919050565b61107461106f826109b1565b611052565b82525050565b5f6110858285611063565b6014820191506110958284610db4565b6020820191508190509392505050565b5f6110b08286611063565b6014820191506110c08285610db4565b6020820191506110d08284610db4565b60208201915081905094935050505056fea26469706673582212203b650978a40e30041e50b9e2e3d303b4dcc7a3be12fcb6d0e63f7421710a78bf64736f6c63430008180033",
					"opcodes": "PUSH1 0x80 PUSH1 0x40 MSTORE PUSH1 0x64 PUSH0 DUP1 PUSH2 0x100 EXP DUP2 SLOAD DUP2 PUSH1 0xFF MUL NOT AND SWAP1 DUP4 PUSH1 0xFF AND MUL OR SWAP1 SSTORE POP CALLVALUE DUP1 ISZERO PUSH2 0x29 JUMPI PUSH0 DUP1 REVERT JUMPDEST POP PUSH2 0x1117 DUP1 PUSH2 0x37 PUSH0 CODECOPY PUSH0 RETURN INVALID PUSH1 0x80 PUSH1 0x40 MSTORE CALLVALUE DUP1 ISZERO PUSH2 0xF JUMPI PUSH0 DUP1 REVERT JUMPDEST POP PUSH1 0x4 CALLDATASIZE LT PUSH2 0x55 JUMPI PUSH0 CALLDATALOAD PUSH1 0xE0 SHR DUP1 PUSH4 0x6AC5DB19 EQ PUSH2 0x59 JUMPI DUP1 PUSH4 0x701FD0F1 EQ PUSH2 0x77 JUMPI DUP1 PUSH4 0x7B43A8E6 EQ PUSH2 0x93 JUMPI DUP1 PUSH4 0xDE8E9033 EQ PUSH2 0xC5 JUMPI DUP1 PUSH4 0xF14FCBC8 EQ PUSH2 0xE1 JUMPI JUMPDEST PUSH0 DUP1 REVERT JUMPDEST PUSH2 0x61 PUSH2 0xFD JUMP JUMPDEST PUSH1 0x40 MLOAD PUSH2 0x6E SWAP2 SWAP1 PUSH2 0x917 JUMP JUMPDEST PUSH1 0x40 MLOAD DUP1 SWAP2 SUB SWAP1 RETURN JUMPDEST PUSH2 0x91 PUSH1 0x4 DUP1 CALLDATASIZE SUB DUP2 ADD SWAP1 PUSH2 0x8C SWAP2 SWAP1 PUSH2 0x967 JUMP JUMPDEST PUSH2 0x10D JUMP JUMPDEST STOP JUMPDEST PUSH2 0xAD PUSH1 0x4 DUP1 CALLDATASIZE SUB DUP2 ADD SWAP1 PUSH2 0xA8 SWAP2 SWAP1 PUSH2 0x9EC JUMP JUMPDEST PUSH2 0x4CB JUMP JUMPDEST PUSH1 0x40 MLOAD PUSH2 0xBC SWAP4 SWAP3 SWAP2 SWAP1 PUSH2 0xA62 JUMP JUMPDEST PUSH1 0x40 MLOAD DUP1 SWAP2 SUB SWAP1 RETURN JUMPDEST PUSH2 0xDF PUSH1 0x4 DUP1 CALLDATASIZE SUB DUP2 ADD SWAP1 PUSH2 0xDA SWAP2 SWAP1 PUSH2 0xA97 JUMP JUMPDEST PUSH2 0x511 JUMP JUMPDEST STOP JUMPDEST PUSH2 0xFB PUSH1 0x4 DUP1 CALLDATASIZE SUB DUP2 ADD SWAP1 PUSH2 0xF6 SWAP2 SWAP1 PUSH2 0x967 JUMP JUMPDEST PUSH2 0x6C5 JUMP JUMPDEST STOP JUMPDEST PUSH0 DUP1 SLOAD SWAP1 PUSH2 0x100 EXP SWAP1 DIV PUSH1 0xFF AND DUP2 JUMP JUMPDEST PUSH0 ISZERO ISZERO PUSH1 0x1 PUSH0 CALLER PUSH20 0xFFFFFFFFFFFFFFFFFFFFFFFFFFFFFFFFFFFFFFFF AND PUSH20 0xFFFFFFFFFFFFFFFFFFFFFFFFFFFFFFFFFFFFFFFF AND DUP2 MSTORE PUSH1 0x20 ADD SWAP1 DUP2 MSTORE PUSH1 0x20 ADD PUSH0 KECCAK256 PUSH1 0x1 ADD PUSH1 0x8 SWAP1 SLOAD SWAP1 PUSH2 0x100 EXP SWAP1 DIV PUSH1 0xFF AND ISZERO ISZERO EQ PUSH2 0x1A0 JUMPI PUSH1 0x40 MLOAD PUSH32 0x8C379A000000000000000000000000000000000000000000000000000000000 DUP2 MSTORE PUSH1 0x4 ADD PUSH2 0x197 SWAP1 PUSH2 0xB55 JUMP JUMPDEST PUSH1 0x40 MLOAD DUP1 SWAP2 SUB SWAP1 REVERT JUMPDEST PUSH1 0x1 DUP1 PUSH0 CALLER PUSH20 0xFFFFFFFFFFFFFFFFFFFFFFFFFFFFFFFFFFFFFFFF AND PUSH20 0xFFFFFFFFFFFFFFFFFFFFFFFFFFFFFFFFFFFFFFFF AND DUP2 MSTORE PUSH1 0x20 ADD SWAP1 DUP2 MSTORE PUSH1 0x20 ADD PUSH0 KECCAK256 PUSH1 0x1 ADD PUSH1 0x8 PUSH2 0x100 EXP DUP2 SLOAD DUP2 PUSH1 0xFF MUL NOT AND SWAP1 DUP4 ISZERO ISZERO MUL OR SWAP1 SSTORE POP PUSH1 0x1 PUSH0 CALLER PUSH20 0xFFFFFFFFFFFFFFFFFFFFFFFFFFFFFFFFFFFFFFFF AND PUSH20 0xFFFFFFFFFFFFFFFFFFFFFFFFFFFFFFFFFFFFFFFF AND DUP2 MSTORE PUSH1 0x20 ADD SWAP1 DUP2 MSTORE PUSH1 0x20 ADD PUSH0 KECCAK256 PUSH0 ADD SLOAD PUSH2 0x241 DUP3 PUSH2 0x897 JUMP JUMPDEST EQ PUSH2 0x281 JUMPI PUSH1 0x40 MLOAD PUSH32 0x8C379A000000000000000000000000000000000000000000000000000000000 DUP2 MSTORE PUSH1 0x4 ADD PUSH2 0x278 SWAP1 PUSH2 0xBE3 JUMP JUMPDEST PUSH1 0x40 MLOAD DUP1 SWAP2 SUB SWAP1 REVERT JUMPDEST PUSH1 0x1 PUSH0 CALLER PUSH20 0xFFFFFFFFFFFFFFFFFFFFFFFFFFFFFFFFFFFFFFFF AND PUSH20 0xFFFFFFFFFFFFFFFFFFFFFFFFFFFFFFFFFFFFFFFF AND DUP2 MSTORE PUSH1 0x20 ADD SWAP1 DUP2 MSTORE PUSH1 0x20 ADD PUSH0 KECCAK256 PUSH1 0x1 ADD PUSH0 SWAP1 SLOAD SWAP1 PUSH2 0x100 EXP SWAP1 DIV PUSH8 0xFFFFFFFFFFFFFFFF AND PUSH8 0xFFFFFFFFFFFFFFFF AND NUMBER PUSH8 0xFFFFFFFFFFFFFFFF AND GT PUSH2 0x32A JUMPI PUSH1 0x40 MLOAD PUSH32 0x8C379A000000000000000000000000000000000000000000000000000000000 DUP2 MSTORE PUSH1 0x4 ADD PUSH2 0x321 SWAP1 PUSH2 0xC97 JUMP JUMPDEST PUSH1 0x40 MLOAD DUP1 SWAP2 SUB SWAP1 REVERT JUMPDEST PUSH1 0xFA PUSH1 0x1 PUSH0 CALLER PUSH20 0xFFFFFFFFFFFFFFFFFFFFFFFFFFFFFFFFFFFFFFFF AND PUSH20 0xFFFFFFFFFFFFFFFFFFFFFFFFFFFFFFFFFFFFFFFF AND DUP2 MSTORE PUSH1 0x20 ADD SWAP1 DUP2 MSTORE PUSH1 0x20 ADD PUSH0 KECCAK256 PUSH1 0x1 ADD PUSH0 SWAP1 SLOAD SWAP1 PUSH2 0x100 EXP SWAP1 DIV PUSH8 0xFFFFFFFFFFFFFFFF AND PUSH2 0x38A SWAP2 SWAP1 PUSH2 0xCE2 JUMP JUMPDEST PUSH8 0xFFFFFFFFFFFFFFFF AND NUMBER PUSH8 0xFFFFFFFFFFFFFFFF AND GT ISZERO PUSH2 0x3E0 JUMPI PUSH1 0x40 MLOAD PUSH32 0x8C379A000000000000000000000000000000000000000000000000000000000 DUP2 MSTORE PUSH1 0x4 ADD PUSH2 0x3D7 SWAP1 PUSH2 0xD8D JUMP JUMPDEST PUSH1 0x40 MLOAD DUP1 SWAP2 SUB SWAP1 REVERT JUMPDEST PUSH0 PUSH1 0x1 PUSH0 CALLER PUSH20 0xFFFFFFFFFFFFFFFFFFFFFFFFFFFFFFFFFFFFFFFF AND PUSH20 0xFFFFFFFFFFFFFFFFFFFFFFFFFFFFFFFFFFFFFFFF AND DUP2 MSTORE PUSH1 0x20 ADD SWAP1 DUP2 MSTORE PUSH1 0x20 ADD PUSH0 KECCAK256 PUSH1 0x1 ADD PUSH0 SWAP1 SLOAD SWAP1 PUSH2 0x100 EXP SWAP1 DIV PUSH8 0xFFFFFFFFFFFFFFFF AND PUSH8 0xFFFFFFFFFFFFFFFF AND BLOCKHASH SWAP1 POP PUSH0 DUP1 PUSH0 SWAP1 SLOAD SWAP1 PUSH2 0x100 EXP SWAP1 DIV PUSH1 0xFF AND PUSH1 0xFF AND DUP3 DUP5 PUSH1 0x40 MLOAD PUSH1 0x20 ADD PUSH2 0x467 SWAP3 SWAP2 SWAP1 PUSH2 0xDCB JUMP JUMPDEST PUSH1 0x40 MLOAD PUSH1 0x20 DUP2 DUP4 SUB SUB DUP2 MSTORE SWAP1 PUSH1 0x40 MSTORE DUP1 MLOAD SWAP1 PUSH1 0x20 ADD KECCAK256 PUSH0 SHR PUSH2 0x489 SWAP2 SWAP1 PUSH2 0xE2C JUMP JUMPDEST SWAP1 POP PUSH32 0xBC016DD1CADEAEFCB851AF7A0A93532E0023D536894B730801F7BCFE7065BCC2 CALLER DUP5 DUP4 PUSH1 0x40 MLOAD PUSH2 0x4BE SWAP4 SWAP3 SWAP2 SWAP1 PUSH2 0xE7A JUMP JUMPDEST PUSH1 0x40 MLOAD DUP1 SWAP2 SUB SWAP1 LOG1 POP POP POP JUMP JUMPDEST PUSH1 0x1 PUSH1 0x20 MSTORE DUP1 PUSH0 MSTORE PUSH1 0x40 PUSH0 KECCAK256 PUSH0 SWAP2 POP SWAP1 POP DUP1 PUSH0 ADD SLOAD SWAP1 DUP1 PUSH1 0x1 ADD PUSH0 SWAP1 SLOAD SWAP1 PUSH2 0x100 EXP SWAP1 DIV PUSH8 0xFFFFFFFFFFFFFFFF AND SWAP1 DUP1 PUSH1 0x1 ADD PUSH1 0x8 SWAP1 SLOAD SWAP1 PUSH2 0x100 EXP SWAP1 DIV PUSH1 0xFF AND SWAP1 POP DUP4 JUMP JUMPDEST PUSH0 ISZERO ISZERO PUSH1 0x1 PUSH0 CALLER PUSH20 0xFFFFFFFFFFFFFFFFFFFFFFFFFFFFFFFFFFFFFFFF AND PUSH20 0xFFFFFFFFFFFFFFFFFFFFFFFFFFFFFFFFFFFFFFFF AND DUP2 MSTORE PUSH1 0x20 ADD SWAP1 DUP2 MSTORE PUSH1 0x20 ADD PUSH0 KECCAK256 PUSH1 0x1 ADD PUSH1 0x8 SWAP1 SLOAD SWAP1 PUSH2 0x100 EXP SWAP1 DIV PUSH1 0xFF AND ISZERO ISZERO EQ PUSH2 0x5A4 JUMPI PUSH1 0x40 MLOAD PUSH32 0x8C379A000000000000000000000000000000000000000000000000000000000 DUP2 MSTORE PUSH1 0x4 ADD PUSH2 0x59B SWAP1 PUSH2 0xF1F JUMP JUMPDEST PUSH1 0x40 MLOAD DUP1 SWAP2 SUB SWAP1 REVERT JUMPDEST PUSH1 0x1 DUP1 PUSH0 CALLER PUSH20 0xFFFFFFFFFFFFFFFFFFFFFFFFFFFFFFFFFFFFFFFF AND PUSH20 0xFFFFFFFFFFFFFFFFFFFFFFFFFFFFFFFFFFFFFFFF AND DUP2 MSTORE PUSH1 0x20 ADD SWAP1 DUP2 MSTORE PUSH1 0x20 ADD PUSH0 KECCAK256 PUSH1 0x1 ADD PUSH1 0x8 PUSH2 0x100 EXP DUP2 SLOAD DUP2 PUSH1 0xFF MUL NOT AND SWAP1 DUP4 ISZERO ISZERO MUL OR SWAP1 SSTORE POP PUSH1 0x1 PUSH0 CALLER PUSH20 0xFFFFFFFFFFFFFFFFFFFFFFFFFFFFFFFFFFFFFFFF AND PUSH20 0xFFFFFFFFFFFFFFFFFFFFFFFFFFFFFFFFFFFFFFFF AND DUP2 MSTORE PUSH1 0x20 ADD SWAP1 DUP2 MSTORE PUSH1 0x20 ADD PUSH0 KECCAK256 PUSH0 ADD SLOAD PUSH2 0x646 DUP4 DUP4 PUSH2 0x8C8 JUMP JUMPDEST EQ PUSH2 0x686 JUMPI PUSH1 0x40 MLOAD PUSH32 0x8C379A000000000000000000000000000000000000000000000000000000000 DUP2 MSTORE PUSH1 0x4 ADD PUSH2 0x67D SWAP1 PUSH2 0xFAD JUMP JUMPDEST PUSH1 0x40 MLOAD DUP1 SWAP2 SUB SWAP1 REVERT JUMPDEST PUSH32 0x8BED02C4D61E56ED1D90657E7A0BA48F15CCA20FCC2899D7235221B2CB0423A6 CALLER DUP4 DUP4 PUSH1 0x40 MLOAD PUSH2 0x6B9 SWAP4 SWAP3 SWAP2 SWAP1 PUSH2 0xFCB JUMP JUMPDEST PUSH1 0x40 MLOAD DUP1 SWAP2 SUB SWAP1 LOG1 POP POP JUMP JUMPDEST DUP1 PUSH1 0x1 PUSH0 CALLER PUSH20 0xFFFFFFFFFFFFFFFFFFFFFFFFFFFFFFFFFFFFFFFF AND PUSH20 0xFFFFFFFFFFFFFFFFFFFFFFFFFFFFFFFFFFFFFFFF AND DUP2 MSTORE PUSH1 0x20 ADD SWAP1 DUP2 MSTORE PUSH1 0x20 ADD PUSH0 KECCAK256 PUSH0 ADD DUP2 SWAP1 SSTORE POP NUMBER PUSH1 0x1 PUSH0 CALLER PUSH20 0xFFFFFFFFFFFFFFFFFFFFFFFFFFFFFFFFFFFFFFFF AND PUSH20 0xFFFFFFFFFFFFFFFFFFFFFFFFFFFFFFFFFFFFFFFF AND DUP2 MSTORE PUSH1 0x20 ADD SWAP1 DUP2 MSTORE PUSH1 0x20 ADD PUSH0 KECCAK256 PUSH1 0x1 ADD PUSH0 PUSH2 0x100 EXP DUP2 SLOAD DUP2 PUSH8 0xFFFFFFFFFFFFFFFF MUL NOT AND SWAP1 DUP4 PUSH8 0xFFFFFFFFFFFFFFFF AND MUL OR SWAP1 SSTORE POP PUSH0 PUSH1 0x1 PUSH0 CALLER PUSH20 0xFFFFFFFFFFFFFFFFFFFFFFFFFFFFFFFFFFFFFFFF AND PUSH20 0xFFFFFFFFFFFFFFFFFFFFFFFFFFFFFFFFFFFFFFFF AND DUP2 MSTORE PUSH1 0x20 ADD SWAP1 DUP2 MSTORE PUSH1 0x20 ADD PUSH0 KECCAK256 PUSH1 0x1 ADD PUSH1 0x8 PUSH2 0x100 EXP DUP2 SLOAD DUP2 PUSH1 0xFF MUL NOT AND SWAP1 DUP4 ISZERO ISZERO MUL OR SWAP1 SSTORE POP PUSH32 0x3C1A1F8F38335B17F751C6DA4BA7D1865F26B3997535176F5080DE9FAD891603 CALLER PUSH1 0x1 PUSH0 CALLER PUSH20 0xFFFFFFFFFFFFFFFFFFFFFFFFFFFFFFFFFFFFFFFF AND PUSH20 0xFFFFFFFFFFFFFFFFFFFFFFFFFFFFFFFFFFFFFFFF AND DUP2 MSTORE PUSH1 0x20 ADD SWAP1 DUP2 MSTORE PUSH1 0x20 ADD PUSH0 KECCAK256 PUSH0 ADD SLOAD PUSH1 0x1 PUSH0 CALLER PUSH20 0xFFFFFFFFFFFFFFFFFFFFFFFFFFFFFFFFFFFFFFFF AND PUSH20 0xFFFFFFFFFFFFFFFFFFFFFFFFFFFFFFFFFFFFFFFF AND DUP2 MSTORE PUSH1 0x20 ADD SWAP1 DUP2 MSTORE PUSH1 0x20 ADD PUSH0 KECCAK256 PUSH1 0x1 ADD PUSH0 SWAP1 SLOAD SWAP1 PUSH2 0x100 EXP SWAP1 DIV PUSH8 0xFFFFFFFFFFFFFFFF AND PUSH1 0x40 MLOAD PUSH2 0x88C SWAP4 SWAP3 SWAP2 SWAP1 PUSH2 0x1000 JUMP JUMPDEST PUSH1 0x40 MLOAD DUP1 SWAP2 SUB SWAP1 LOG1 POP JUMP JUMPDEST PUSH0 ADDRESS DUP3 PUSH1 0x40 MLOAD PUSH1 0x20 ADD PUSH2 0x8AB SWAP3 SWAP2 SWAP1 PUSH2 0x107A JUMP JUMPDEST PUSH1 0x40 MLOAD PUSH1 0x20 DUP2 DUP4 SUB SUB DUP2 MSTORE SWAP1 PUSH1 0x40 MSTORE DUP1 MLOAD SWAP1 PUSH1 0x20 ADD KECCAK256 SWAP1 POP SWAP2 SWAP1 POP JUMP JUMPDEST PUSH0 ADDRESS DUP4 DUP4 PUSH1 0x40 MLOAD PUSH1 0x20 ADD PUSH2 0x8DE SWAP4 SWAP3 SWAP2 SWAP1 PUSH2 0x10A5 JUMP JUMPDEST PUSH1 0x40 MLOAD PUSH1 0x20 DUP2 DUP4 SUB SUB DUP2 MSTORE SWAP1 PUSH1 0x40 MSTORE DUP1 MLOAD SWAP1 PUSH1 0x20 ADD KECCAK256 SWAP1 POP SWAP3 SWAP2 POP POP JUMP JUMPDEST PUSH0 PUSH1 0xFF DUP3 AND SWAP1 POP SWAP2 SWAP1 POP JUMP JUMPDEST PUSH2 0x911 DUP2 PUSH2 0x8FC JUMP JUMPDEST DUP3 MSTORE POP POP JUMP JUMPDEST PUSH0 PUSH1 0x20 DUP3 ADD SWAP1 POP PUSH2 0x92A PUSH0 DUP4 ADD DUP5 PUSH2 0x908 JUMP JUMPDEST SWAP3 SWAP2 POP POP JUMP JUMPDEST PUSH0 DUP1 REVERT JUMPDEST PUSH0 DUP2 SWAP1 POP SWAP2 SWAP1 POP JUMP JUMPDEST PUSH2 0x946 DUP2 PUSH2 0x934 JUMP JUMPDEST DUP2 EQ PUSH2 0x950 JUMPI PUSH0 DUP1 REVERT JUMPDEST POP JUMP JUMPDEST PUSH0 DUP2 CALLDATALOAD SWAP1 POP PUSH2 0x961 DUP2 PUSH2 0x93D JUMP JUMPDEST SWAP3 SWAP2 POP POP JUMP JUMPDEST PUSH0 PUSH1 0x20 DUP3 DUP5 SUB SLT ISZERO PUSH2 0x97C JUMPI PUSH2 0x97B PUSH2 0x930 JUMP JUMPDEST JUMPDEST PUSH0 PUSH2 0x989 DUP5 DUP3 DUP6 ADD PUSH2 0x953 JUMP JUMPDEST SWAP2 POP POP SWAP3 SWAP2 POP POP JUMP JUMPDEST PUSH0 PUSH20 0xFFFFFFFFFFFFFFFFFFFFFFFFFFFFFFFFFFFFFFFF DUP3 AND SWAP1 POP SWAP2 SWAP1 POP JUMP JUMPDEST PUSH0 PUSH2 0x9BB DUP3 PUSH2 0x992 JUMP JUMPDEST SWAP1 POP SWAP2 SWAP1 POP JUMP JUMPDEST PUSH2 0x9CB DUP2 PUSH2 0x9B1 JUMP JUMPDEST DUP2 EQ PUSH2 0x9D5 JUMPI PUSH0 DUP1 REVERT JUMPDEST POP JUMP JUMPDEST PUSH0 DUP2 CALLDATALOAD SWAP1 POP PUSH2 0x9E6 DUP2 PUSH2 0x9C2 JUMP JUMPDEST SWAP3 SWAP2 POP POP JUMP JUMPDEST PUSH0 PUSH1 0x20 DUP3 DUP5 SUB SLT ISZERO PUSH2 0xA01 JUMPI PUSH2 0xA00 PUSH2 0x930 JUMP JUMPDEST JUMPDEST PUSH0 PUSH2 0xA0E DUP5 DUP3 DUP6 ADD PUSH2 0x9D8 JUMP JUMPDEST SWAP2 POP POP SWAP3 SWAP2 POP POP JUMP JUMPDEST PUSH2 0xA20 DUP2 PUSH2 0x934 JUMP JUMPDEST DUP3 MSTORE POP POP JUMP JUMPDEST PUSH0 PUSH8 0xFFFFFFFFFFFFFFFF DUP3 AND SWAP1 POP SWAP2 SWAP1 POP JUMP JUMPDEST PUSH2 0xA42 DUP2 PUSH2 0xA26 JUMP JUMPDEST DUP3 MSTORE POP POP JUMP JUMPDEST PUSH0 DUP2 ISZERO ISZERO SWAP1 POP SWAP2 SWAP1 POP JUMP JUMPDEST PUSH2 0xA5C DUP2 PUSH2 0xA48 JUMP JUMPDEST DUP3 MSTORE POP POP JUMP JUMPDEST PUSH0 PUSH1 0x60 DUP3 ADD SWAP1 POP PUSH2 0xA75 PUSH0 DUP4 ADD DUP7 PUSH2 0xA17 JUMP JUMPDEST PUSH2 0xA82 PUSH1 0x20 DUP4 ADD DUP6 PUSH2 0xA39 JUMP JUMPDEST PUSH2 0xA8F PUSH1 0x40 DUP4 ADD DUP5 PUSH2 0xA53 JUMP JUMPDEST SWAP5 SWAP4 POP POP POP POP JUMP JUMPDEST PUSH0 DUP1 PUSH1 0x40 DUP4 DUP6 SUB SLT ISZERO PUSH2 0xAAD JUMPI PUSH2 0xAAC PUSH2 0x930 JUMP JUMPDEST JUMPDEST PUSH0 PUSH2 0xABA DUP6 DUP3 DUP7 ADD PUSH2 0x953 JUMP JUMPDEST SWAP3 POP POP PUSH1 0x20 PUSH2 0xACB DUP6 DUP3 DUP7 ADD PUSH2 0x953 JUMP JUMPDEST SWAP2 POP POP SWAP3 POP SWAP3 SWAP1 POP JUMP JUMPDEST PUSH0 DUP3 DUP3 MSTORE PUSH1 0x20 DUP3 ADD SWAP1 POP SWAP3 SWAP2 POP POP JUMP JUMPDEST PUSH32 0x436F6D6D697452657665616C3A3A72657665616C3A20416C7265616479207265 PUSH0 DUP3 ADD MSTORE PUSH32 0x7665616C65640000000000000000000000000000000000000000000000000000 PUSH1 0x20 DUP3 ADD MSTORE POP JUMP JUMPDEST PUSH0 PUSH2 0xB3F PUSH1 0x26 DUP4 PUSH2 0xAD5 JUMP JUMPDEST SWAP2 POP PUSH2 0xB4A DUP3 PUSH2 0xAE5 JUMP JUMPDEST PUSH1 0x40 DUP3 ADD SWAP1 POP SWAP2 SWAP1 POP JUMP JUMPDEST PUSH0 PUSH1 0x20 DUP3 ADD SWAP1 POP DUP2 DUP2 SUB PUSH0 DUP4 ADD MSTORE PUSH2 0xB6C DUP2 PUSH2 0xB33 JUMP JUMPDEST SWAP1 POP SWAP2 SWAP1 POP JUMP JUMPDEST PUSH32 0x436F6D6D697452657665616C3A3A72657665616C3A2052657665616C65642068 PUSH0 DUP3 ADD MSTORE PUSH32 0x61736820646F6573206E6F74206D6174636820636F6D6D697400000000000000 PUSH1 0x20 DUP3 ADD MSTORE POP JUMP JUMPDEST PUSH0 PUSH2 0xBCD PUSH1 0x39 DUP4 PUSH2 0xAD5 JUMP JUMPDEST SWAP2 POP PUSH2 0xBD8 DUP3 PUSH2 0xB73 JUMP JUMPDEST PUSH1 0x40 DUP3 ADD SWAP1 POP SWAP2 SWAP1 POP JUMP JUMPDEST PUSH0 PUSH1 0x20 DUP3 ADD SWAP1 POP DUP2 DUP2 SUB PUSH0 DUP4 ADD MSTORE PUSH2 0xBFA DUP2 PUSH2 0xBC1 JUMP JUMPDEST SWAP1 POP SWAP2 SWAP1 POP JUMP JUMPDEST PUSH32 0x436F6D6D697452657665616C3A3A72657665616C3A2052657665616C20616E64 PUSH0 DUP3 ADD MSTORE PUSH32 0x20636F6D6D69742068617070656E6564206F6E207468652073616D6520626C6F PUSH1 0x20 DUP3 ADD MSTORE PUSH32 0x636B000000000000000000000000000000000000000000000000000000000000 PUSH1 0x40 DUP3 ADD MSTORE POP JUMP JUMPDEST PUSH0 PUSH2 0xC81 PUSH1 0x42 DUP4 PUSH2 0xAD5 JUMP JUMPDEST SWAP2 POP PUSH2 0xC8C DUP3 PUSH2 0xC01 JUMP JUMPDEST PUSH1 0x60 DUP3 ADD SWAP1 POP SWAP2 SWAP1 POP JUMP JUMPDEST PUSH0 PUSH1 0x20 DUP3 ADD SWAP1 POP DUP2 DUP2 SUB PUSH0 DUP4 ADD MSTORE PUSH2 0xCAE DUP2 PUSH2 0xC75 JUMP JUMPDEST SWAP1 POP SWAP2 SWAP1 POP JUMP JUMPDEST PUSH32 0x4E487B7100000000000000000000000000000000000000000000000000000000 PUSH0 MSTORE PUSH1 0x11 PUSH1 0x4 MSTORE PUSH1 0x24 PUSH0 REVERT JUMPDEST PUSH0 PUSH2 0xCEC DUP3 PUSH2 0xA26 JUMP JUMPDEST SWAP2 POP PUSH2 0xCF7 DUP4 PUSH2 0xA26 JUMP JUMPDEST SWAP3 POP DUP3 DUP3 ADD SWAP1 POP PUSH8 0xFFFFFFFFFFFFFFFF DUP2 GT ISZERO PUSH2 0xD17 JUMPI PUSH2 0xD16 PUSH2 0xCB5 JUMP JUMPDEST JUMPDEST SWAP3 SWAP2 POP POP JUMP JUMPDEST PUSH32 0x436F6D6D697452657665616C3A3A72657665616C3A2052657665616C65642074 PUSH0 DUP3 ADD MSTORE PUSH32 0x6F6F206C61746500000000000000000000000000000000000000000000000000 PUSH1 0x20 DUP3 ADD MSTORE POP JUMP JUMPDEST PUSH0 PUSH2 0xD77 PUSH1 0x27 DUP4 PUSH2 0xAD5 JUMP JUMPDEST SWAP2 POP PUSH2 0xD82 DUP3 PUSH2 0xD1D JUMP JUMPDEST PUSH1 0x40 DUP3 ADD SWAP1 POP SWAP2 SWAP1 POP JUMP JUMPDEST PUSH0 PUSH1 0x20 DUP3 ADD SWAP1 POP DUP2 DUP2 SUB PUSH0 DUP4 ADD MSTORE PUSH2 0xDA4 DUP2 PUSH2 0xD6B JUMP JUMPDEST SWAP1 POP SWAP2 SWAP1 POP JUMP JUMPDEST PUSH0 DUP2 SWAP1 POP SWAP2 SWAP1 POP JUMP JUMPDEST PUSH2 0xDC5 PUSH2 0xDC0 DUP3 PUSH2 0x934 JUMP JUMPDEST PUSH2 0xDAB JUMP JUMPDEST DUP3 MSTORE POP POP JUMP JUMPDEST PUSH0 PUSH2 0xDD6 DUP3 DUP6 PUSH2 0xDB4 JUMP JUMPDEST PUSH1 0x20 DUP3 ADD SWAP2 POP PUSH2 0xDE6 DUP3 DUP5 PUSH2 0xDB4 JUMP JUMPDEST PUSH1 0x20 DUP3 ADD SWAP2 POP DUP2 SWAP1 POP SWAP4 SWAP3 POP POP POP JUMP JUMPDEST PUSH0 DUP2 SWAP1 POP SWAP2 SWAP1 POP JUMP JUMPDEST PUSH32 0x4E487B7100000000000000000000000000000000000000000000000000000000 PUSH0 MSTORE PUSH1 0x12 PUSH1 0x4 MSTORE PUSH1 0x24 PUSH0 REVERT JUMPDEST PUSH0 PUSH2 0xE36 DUP3 PUSH2 0xDF6 JUMP JUMPDEST SWAP2 POP PUSH2 0xE41 DUP4 PUSH2 0xDF6 JUMP JUMPDEST SWAP3 POP DUP3 PUSH2 0xE51 JUMPI PUSH2 0xE50 PUSH2 0xDFF JUMP JUMPDEST JUMPDEST DUP3 DUP3 MOD SWAP1 POP SWAP3 SWAP2 POP POP JUMP JUMPDEST PUSH2 0xE65 DUP2 PUSH2 0x9B1 JUMP JUMPDEST DUP3 MSTORE POP POP JUMP JUMPDEST PUSH2 0xE74 DUP2 PUSH2 0xDF6 JUMP JUMPDEST DUP3 MSTORE POP POP JUMP JUMPDEST PUSH0 PUSH1 0x60 DUP3 ADD SWAP1 POP PUSH2 0xE8D PUSH0 DUP4 ADD DUP7 PUSH2 0xE5C JUMP JUMPDEST PUSH2 0xE9A PUSH1 0x20 DUP4 ADD DUP6 PUSH2 0xA17 JUMP JUMPDEST PUSH2 0xEA7 PUSH1 0x40 DUP4 ADD DUP5 PUSH2 0xE6B JUMP JUMPDEST SWAP5 SWAP4 POP POP POP POP JUMP JUMPDEST PUSH32 0x436F6D6D697452657665616C3A3A72657665616C416E737765723A20416C7265 PUSH0 DUP3 ADD MSTORE PUSH32 0x6164792072657665616C65640000000000000000000000000000000000000000 PUSH1 0x20 DUP3 ADD MSTORE POP JUMP JUMPDEST PUSH0 PUSH2 0xF09 PUSH1 0x2C DUP4 PUSH2 0xAD5 JUMP JUMPDEST SWAP2 POP PUSH2 0xF14 DUP3 PUSH2 0xEAF JUMP JUMPDEST PUSH1 0x40 DUP3 ADD SWAP1 POP SWAP2 SWAP1 POP JUMP JUMPDEST PUSH0 PUSH1 0x20 DUP3 ADD SWAP1 POP DUP2 DUP2 SUB PUSH0 DUP4 ADD MSTORE PUSH2 0xF36 DUP2 PUSH2 0xEFD JUMP JUMPDEST SWAP1 POP SWAP2 SWAP1 POP JUMP JUMPDEST PUSH32 0x436F6D6D697452657665616C3A3A72657665616C416E737765723A2052657665 PUSH0 DUP3 ADD MSTORE PUSH32 0x616C6564206861736820646F6573206E6F74206D6174636820636F6D6D697400 PUSH1 0x20 DUP3 ADD MSTORE POP JUMP JUMPDEST PUSH0 PUSH2 0xF97 PUSH1 0x3F DUP4 PUSH2 0xAD5 JUMP JUMPDEST SWAP2 POP PUSH2 0xFA2 DUP3 PUSH2 0xF3D JUMP JUMPDEST PUSH1 0x40 DUP3 ADD SWAP1 POP SWAP2 SWAP1 POP JUMP JUMPDEST PUSH0 PUSH1 0x20 DUP3 ADD SWAP1 POP DUP2 DUP2 SUB PUSH0 DUP4 ADD MSTORE PUSH2 0xFC4 DUP2 PUSH2 0xF8B JUMP JUMPDEST SWAP1 POP SWAP2 SWAP1 POP JUMP JUMPDEST PUSH0 PUSH1 0x60 DUP3 ADD SWAP1 POP PUSH2 0xFDE PUSH0 DUP4 ADD DUP7 PUSH2 0xE5C JUMP JUMPDEST PUSH2 0xFEB PUSH1 0x20 DUP4 ADD DUP6 PUSH2 0xA17 JUMP JUMPDEST PUSH2 0xFF8 PUSH1 0x40 DUP4 ADD DUP5 PUSH2 0xA17 JUMP JUMPDEST SWAP5 SWAP4 POP POP POP POP JUMP JUMPDEST PUSH0 PUSH1 0x60 DUP3 ADD SWAP1 POP PUSH2 0x1013 PUSH0 DUP4 ADD DUP7 PUSH2 0xE5C JUMP JUMPDEST PUSH2 0x1020 PUSH1 0x20 DUP4 ADD DUP6 PUSH2 0xA17 JUMP JUMPDEST PUSH2 0x102D PUSH1 0x40 DUP4 ADD DUP5 PUSH2 0xA39 JUMP JUMPDEST SWAP5 SWAP4 POP POP POP POP JUMP JUMPDEST PUSH0 DUP2 PUSH1 0x60 SHL SWAP1 POP SWAP2 SWAP1 POP JUMP JUMPDEST PUSH0 PUSH2 0x104B DUP3 PUSH2 0x1035 JUMP JUMPDEST SWAP1 POP SWAP2 SWAP1 POP JUMP JUMPDEST PUSH0 PUSH2 0x105C DUP3 PUSH2 0x1041 JUMP JUMPDEST SWAP1 POP SWAP2 SWAP1 POP JUMP JUMPDEST PUSH2 0x1074 PUSH2 0x106F DUP3 PUSH2 0x9B1 JUMP JUMPDEST PUSH2 0x1052 JUMP JUMPDEST DUP3 MSTORE POP POP JUMP JUMPDEST PUSH0 PUSH2 0x1085 DUP3 DUP6 PUSH2 0x1063 JUMP JUMPDEST PUSH1 0x14 DUP3 ADD SWAP2 POP PUSH2 0x1095 DUP3 DUP5 PUSH2 0xDB4 JUMP JUMPDEST PUSH1 0x20 DUP3 ADD SWAP2 POP DUP2 SWAP1 POP SWAP4 SWAP3 POP POP POP JUMP JUMPDEST PUSH0 PUSH2 0x10B0 DUP3 DUP7 PUSH2 0x1063 JUMP JUMPDEST PUSH1 0x14 DUP3 ADD SWAP2 POP PUSH2 0x10C0 DUP3 DUP6 PUSH2 0xDB4 JUMP JUMPDEST PUSH1 0x20 DUP3 ADD SWAP2 POP PUSH2 0x10D0 DUP3 DUP5 PUSH2 0xDB4 JUMP JUMPDEST PUSH1 0x20 DUP3 ADD SWAP2 POP DUP2 SWAP1 POP SWAP5 SWAP4 POP POP POP POP JUMP INVALID LOG2 PUSH5 0x6970667358 0x22 SLT KECCAK256 EXTCODESIZE PUSH6 0x978A40E3004 0x1E POP 0xB9 0xE2 0xE3 0xD3 SUB 0xB4 0xDC 0xC7 LOG3 0xBE SLT 0xFC 0xB6 0xD0 0xE6 EXTCODEHASH PUSH21 0x21710A78BF64736F6C634300081800330000000000 "
				},
				"gasEstimates": {
					"creation": {
						"codeDepositCost": "875000",
						"executionCost": "25173",
						"totalCost": "900173"
					},
					"external": {
						"commit(bytes32)": "infinite",
						"commits(address)": "7392",
						"max()": "2441",
						"reveal(bytes32)": "infinite",
						"revealAnswer(bytes32,bytes32)": "infinite"
					},
					"internal": {
						"getHash(bytes32)": "infinite",
						"getSaltedHash(bytes32,bytes32)": "infinite"
					}
				},
				"methodIdentifiers": {
					"commit(bytes32)": "f14fcbc8",
					"commits(address)": "7b43a8e6",
					"max()": "6ac5db19",
					"reveal(bytes32)": "701fd0f1",
					"revealAnswer(bytes32,bytes32)": "de8e9033"
				}
			},
			"storageLayout": {
				"storage": [
					{
						"astId": 4,
						"contract": "CommitReveal.sol:CommitReveal",
						"label": "max",
						"offset": 0,
						"slot": "0",
						"type": "t_uint8"
					},
					{
						"astId": 16,
						"contract": "CommitReveal.sol:CommitReveal",
						"label": "commits",
						"offset": 0,
						"slot": "1",
						"type": "t_mapping(t_address,t_struct(Commit)11_storage)"
					}
				],
				"types": {
					"t_address": {
						"encoding": "inplace",
						"label": "address",
						"numberOfBytes": "20"
					},
					"t_bool": {
						"encoding": "inplace",
						"label": "bool",
						"numberOfBytes": "1"
					},
					"t_bytes32": {
						"encoding": "inplace",
						"label": "bytes32",
						"numberOfBytes": "32"
					},
					"t_mapping(t_address,t_struct(Commit)11_storage)": {
						"encoding": "mapping",
						"key": "t_address",
						"label": "mapping(address => struct CommitReveal.Commit)",
						"numberOfBytes": "32",
						"value": "t_struct(Commit)11_storage"
					},
					"t_struct(Commit)11_storage": {
						"encoding": "inplace",
						"label": "struct CommitReveal.Commit",
						"members": [
							{
								"astId": 6,
								"contract": "CommitReveal.sol:CommitReveal",
								"label": "commit",
								"offset": 0,
								"slot": "0",
								"type": "t_bytes32"
							},
							{
								"astId": 8,
								"contract": "CommitReveal.sol:CommitReveal",
								"label": "block",
								"offset": 0,
								"slot": "1",
								"type": "t_uint64"
							},
							{
								"astId": 10,
								"contract": "CommitReveal.sol:CommitReveal",
								"label": "revealed",
								"offset": 8,
								"slot": "1",
								"type": "t_bool"
							}
						],
						"numberOfBytes": "64"
					},
					"t_uint64": {
						"encoding": "inplace",
						"label": "uint64",
						"numberOfBytes": "8"
					},
					"t_uint8": {
						"encoding": "inplace",
						"label": "uint8",
						"numberOfBytes": "1"
					}
				}
			},
			"userdoc": {
				"kind": "user",
				"methods": {},
				"version": 1
			}
		}
	}
}